{
  "contractName": "GuildBank",
  "abi": [
    {
      "inputs": [
        {
          "internalType": "address",
          "name": "approvedTokenAddress",
          "type": "address"
        }
      ],
      "payable": false,
      "stateMutability": "nonpayable",
      "type": "constructor"
    },
    {
      "anonymous": false,
      "inputs": [
        {
          "indexed": true,
          "internalType": "address",
          "name": "previousOwner",
          "type": "address"
        },
        {
          "indexed": true,
          "internalType": "address",
          "name": "newOwner",
          "type": "address"
        }
      ],
      "name": "OwnershipTransferred",
      "type": "event"
    },
    {
      "anonymous": false,
      "inputs": [
        {
          "indexed": true,
          "internalType": "address",
          "name": "receiver",
          "type": "address"
        },
        {
          "indexed": false,
          "internalType": "uint256",
          "name": "amount",
          "type": "uint256"
        }
      ],
      "name": "Withdrawal",
      "type": "event"
    },
    {
      "constant": true,
      "inputs": [],
      "name": "approvedToken",
      "outputs": [
        {
          "internalType": "contract IERC20",
          "name": "",
          "type": "address"
        }
      ],
      "payable": false,
      "stateMutability": "view",
      "type": "function"
    },
    {
      "constant": true,
      "inputs": [],
      "name": "isOwner",
      "outputs": [
        {
          "internalType": "bool",
          "name": "",
          "type": "bool"
        }
      ],
      "payable": false,
      "stateMutability": "view",
      "type": "function"
    },
    {
      "constant": true,
      "inputs": [],
      "name": "owner",
      "outputs": [
        {
          "internalType": "address",
          "name": "",
          "type": "address"
        }
      ],
      "payable": false,
      "stateMutability": "view",
      "type": "function"
    },
    {
      "constant": false,
      "inputs": [],
      "name": "renounceOwnership",
      "outputs": [],
      "payable": false,
      "stateMutability": "nonpayable",
      "type": "function"
    },
    {
      "constant": false,
      "inputs": [
        {
          "internalType": "address",
          "name": "newOwner",
          "type": "address"
        }
      ],
      "name": "transferOwnership",
      "outputs": [],
      "payable": false,
      "stateMutability": "nonpayable",
      "type": "function"
    },
    {
      "constant": true,
      "inputs": [],
      "name": "weth",
      "outputs": [
        {
          "internalType": "contract WETH9",
          "name": "",
          "type": "address"
        }
      ],
      "payable": false,
      "stateMutability": "view",
      "type": "function"
    },
    {
      "constant": false,
      "inputs": [
        {
          "internalType": "address",
          "name": "receiver",
          "type": "address"
        },
        {
          "internalType": "uint256",
          "name": "shares",
          "type": "uint256"
        },
        {
          "internalType": "uint256",
          "name": "totalShares",
          "type": "uint256"
        }
      ],
      "name": "withdraw",
      "outputs": [
        {
          "internalType": "bool",
          "name": "",
          "type": "bool"
        }
      ],
      "payable": false,
      "stateMutability": "nonpayable",
      "type": "function"
    },
    {
      "constant": false,
      "inputs": [],
      "name": "flip",
      "outputs": [
        {
          "internalType": "bool",
          "name": "",
          "type": "bool"
        }
      ],
      "payable": false,
      "stateMutability": "nonpayable",
      "type": "function"
    }
  ],
  "bytecode": "0x608060405234801561001057600080fd5b50604051610fef380380610fef8339818101604052602081101561003357600080fd5b50516100466001600160e01b036100f816565b600080546001600160a01b0319166001600160a01b03928316178082556040519216917f8be0079c531659141344cd1fd0a4f28419497f9722a3daafe3b4186f6b6457e0908290a3600180546001600160a01b0319166001600160a01b0383161790556040516100b5906100fc565b604051809103906000f0801580156100d1573d6000803e3d6000fd5b50600280546001600160a01b0319166001600160a01b039290921691909117905550610109565b3390565b610807806107e883390190565b6106d0806101186000396000f3fe608060405234801561001057600080fd5b50600436106100885760003560e01c8063b5c5f6721161005b578063b5c5f672146100df578063bab4625914610111578063cde4efa914610119578063f2fde38b1461012157610088565b80633fc8cef31461008d578063715018a6146100b15780638da5cb5b146100bb5780638f32d59b146100c3575b600080fd5b610095610147565b604080516001600160a01b039092168252519081900360200190f35b6100b9610156565b005b6100956101f9565b6100cb610208565b604080519115158252519081900360200190f35b6100cb600480360360608110156100f557600080fd5b506001600160a01b03813516906020810135906040013561022c565b6100956103f1565b6100cb610400565b6100b96004803603602081101561013757600080fd5b50356001600160a01b0316610405565b6002546001600160a01b031681565b61015e610208565b6101af576040805162461bcd60e51b815260206004820181905260248201527f4f776e61626c653a2063616c6c6572206973206e6f7420746865206f776e6572604482015290519081900360640190fd5b600080546040516001600160a01b03909116907f8be0079c531659141344cd1fd0a4f28419497f9722a3daafe3b4186f6b6457e0908390a3600080546001600160a01b0319169055565b6000546001600160a01b031690565b600080546001600160a01b031661021d61046a565b6001600160a01b031614905090565b6000610236610208565b610287576040805162461bcd60e51b815260206004820181905260248201527f4f776e61626c653a2063616c6c6572206973206e6f7420746865206f776e6572604482015290519081900360640190fd5b600154604080516370a0823160e01b815230600482015290516000926103259286926103199289926001600160a01b03909116916370a0823191602480820192602092909190829003018186803b1580156102e157600080fd5b505afa1580156102f5573d6000803e3d6000fd5b505050506040513d602081101561030b57600080fd5b50519063ffffffff61046e16565b9063ffffffff6104d016565b6040805182815290519192506001600160a01b038716917f7fcf532c15f0a6db0bd6d0e038bea71d30d808c7d98cb3bf7268a95bf5081b659181900360200190a26001546040805163a9059cbb60e01b81526001600160a01b038881166004830152602482018590529151919092169163a9059cbb9160448083019260209291908290030181600087803b1580156103bc57600080fd5b505af11580156103d0573d6000803e3d6000fd5b505050506040513d60208110156103e657600080fd5b505195945050505050565b6001546001600160a01b031681565b600190565b61040d610208565b61045e576040805162461bcd60e51b815260206004820181905260248201527f4f776e61626c653a2063616c6c6572206973206e6f7420746865206f776e6572604482015290519081900360640190fd5b61046781610512565b50565b3390565b60008261047d575060006104ca565b8282028284828161048a57fe5b04146104c75760405162461bcd60e51b815260040180806020018281038252602181526020018061067b6021913960400191505060405180910390fd5b90505b92915050565b60006104c783836040518060400160405280601a81526020017f536166654d6174683a206469766973696f6e206279207a65726f0000000000008152506105b2565b6001600160a01b0381166105575760405162461bcd60e51b81526004018080602001828103825260268152602001806106556026913960400191505060405180910390fd5b600080546040516001600160a01b03808516939216917f8be0079c531659141344cd1fd0a4f28419497f9722a3daafe3b4186f6b6457e091a3600080546001600160a01b0319166001600160a01b0392909216919091179055565b6000818361063e5760405162461bcd60e51b81526004018080602001828103825283818151815260200191508051906020019080838360005b838110156106035781810151838201526020016105eb565b50505050905090810190601f1680156106305780820380516001836020036101000a031916815260200191505b509250505060405180910390fd5b50600083858161064a57fe5b049594505050505056fe4f776e61626c653a206e6577206f776e657220697320746865207a65726f2061646472657373536166654d6174683a206d756c7469706c69636174696f6e206f766572666c6f77a265627a7a723158200116e154e2f298f79fb4d24694dc763f581c036ad7e448df1f190977b29a114564736f6c634300050e003260c0604052600d60808190526c2bb930b83832b21022ba3432b960991b60a090815261002e916000919061007a565b50604080518082019091526004808252630ae8aa8960e31b602090920191825261005a9160019161007a565b506002805460ff1916601217905534801561007457600080fd5b50610115565b828054600181600116156101000203166002900490600052602060002090601f016020900481019282601f106100bb57805160ff19168380011785556100e8565b828001600101855582156100e8579182015b828111156100e85782518255916020019190600101906100cd565b506100f49291506100f8565b5090565b61011291905b808211156100f457600081556001016100fe565b90565b6106e3806101246000396000f3fe60806040526004361061009c5760003560e01c8063313ce56711610064578063313ce5671461021157806370a082311461023c57806395d89b411461026f578063a9059cbb14610284578063d0e30db01461009c578063dd62ed3e146102bd5761009c565b806306fdde03146100a6578063095ea7b31461013057806318160ddd1461017d57806323b872dd146101a45780632e1a7d4d146101e7575b6100a46102f8565b005b3480156100b257600080fd5b506100bb610347565b6040805160208082528351818301528351919283929083019185019080838360005b838110156100f55781810151838201526020016100dd565b50505050905090810190601f1680156101225780820380516001836020036101000a031916815260200191505b509250505060405180910390f35b34801561013c57600080fd5b506101696004803603604081101561015357600080fd5b506001600160a01b0381351690602001356103d5565b604080519115158252519081900360200190f35b34801561018957600080fd5b5061019261043b565b60408051918252519081900360200190f35b3480156101b057600080fd5b50610169600480360360608110156101c757600080fd5b506001600160a01b0381358116916020810135909116906040013561043f565b3480156101f357600080fd5b506100a46004803603602081101561020a57600080fd5b5035610573565b34801561021d57600080fd5b50610226610608565b6040805160ff9092168252519081900360200190f35b34801561024857600080fd5b506101926004803603602081101561025f57600080fd5b50356001600160a01b0316610611565b34801561027b57600080fd5b506100bb610623565b34801561029057600080fd5b50610169600480360360408110156102a757600080fd5b506001600160a01b03813516906020013561067d565b3480156102c957600080fd5b50610192600480360360408110156102e057600080fd5b506001600160a01b0381358116916020013516610691565b33600081815260036020908152604091829020805434908101909155825190815291517fe1fffcc4923d04b559f4d29a8bfc6cda04eb5b0d3c460751c2402c5c5cc9109c9281900390910190a2565b6000805460408051602060026001851615610100026000190190941693909304601f810184900484028201840190925281815292918301828280156103cd5780601f106103a2576101008083540402835291602001916103cd565b820191906000526020600020905b8154815290600101906020018083116103b057829003601f168201915b505050505081565b3360008181526004602090815260408083206001600160a01b038716808552908352818420869055815186815291519394909390927f8c5be1e5ebec7d5bd14f71427d1e84f3dd0314c0f7b2291e5b200ac8c7c3b925928290030190a350600192915050565b4790565b6001600160a01b03831660009081526003602052604081205482111561046457600080fd5b6001600160a01b03841633148015906104a257506001600160a01b038416600090815260046020908152604080832033845290915290205460001914155b15610502576001600160a01b03841660009081526004602090815260408083203384529091529020548211156104d757600080fd5b6001600160a01b03841660009081526004602090815260408083203384529091529020805483900390555b6001600160a01b03808516600081815260036020908152604080832080548890039055938716808352918490208054870190558351868152935191937fddf252ad1be2c89b69c2b068fc378daa952ba7f163c4a11628f55a4df523b3ef929081900390910190a35060019392505050565b3360009081526003602052604090205481111561058f57600080fd5b33600081815260036020526040808220805485900390555183156108fc0291849190818181858888f193505050501580156105ce573d6000803e3d6000fd5b5060408051828152905133917f7fcf532c15f0a6db0bd6d0e038bea71d30d808c7d98cb3bf7268a95bf5081b65919081900360200190a250565b60025460ff1681565b60036020526000908152604090205481565b60018054604080516020600284861615610100026000190190941693909304601f810184900484028201840190925281815292918301828280156103cd5780601f106103a2576101008083540402835291602001916103cd565b600061068a33848461043f565b9392505050565b60046020908152600092835260408084209091529082529020548156fea265627a7a723158200913864b41bd367926c2de35947043ac2daff9aa4990ac8f630d88d12cb4226364736f6c634300050e0032",
  "source": "pragma solidity 0.5.14;\n\nimport \"@openzeppelin/contracts/token/ERC20/IERC20.sol\";\nimport \"@openzeppelin/contracts/math/SafeMath.sol\";\nimport \"@openzeppelin/contracts/ownership/Ownable.sol\";\n\nimport \"./mock/WETH9.sol\";\n\ncontract GuildBank is Ownable {\n    using SafeMath for uint256;\n\n    IERC20 public approvedToken; // approved token contract reference\n    WETH9 public weth;\n\n    event Withdrawal(address indexed receiver, uint256 amount);\n\n    constructor(address approvedTokenAddress) public {\n        approvedToken = IERC20(approvedTokenAddress);\n\n        weth = new WETH9();\n    }\n\n    function withdraw(address receiver, uint256 shares, uint256 totalShares) public onlyOwner returns (bool) {\n        uint256 amount = approvedToken.balanceOf(address(this)).mul(shares).div(totalShares);\n        emit Withdrawal(receiver, amount);\n        return approvedToken.transfer(receiver, amount);\n    }\n\n    // Non-moloch v1 code below\n\n    // this allows us to flip the ETH accrued\n    function flip() public returns (bool) {\n\n        return true;\n    }\n}",
  "sourcePath": "/Users/andygray/workspace/known-origin-kod/smart-contracts/contracts/GuildBank.sol",
  "compiler": {
    "name": "solc",
    "version": "0.5.14+commit.01f1aaa4.Emscripten.clang"
  },
  "schemaVersion": "3.0.22",
  "updatedAt": "2020-01-30T11:22:16.270Z",
  "devdoc": {
    "methods": {
      "isOwner()": {
        "details": "Returns true if the caller is the current owner."
      },
      "owner()": {
        "details": "Returns the address of the current owner."
      },
      "renounceOwnership()": {
        "details": "Leaves the contract without owner. It will not be possible to call `onlyOwner` functions anymore. Can only be called by the current owner.     * NOTE: Renouncing ownership will leave the contract without an owner, thereby removing any functionality that is only available to the owner."
      },
      "transferOwnership(address)": {
        "details": "Transfers ownership of the contract to a new account (`newOwner`). Can only be called by the current owner."
      }
    }
  },
  "userdoc": {
    "methods": {}
  }
}