{
  "contractName": "GuildBank",
  "abi": [
    {
      "constant": false,
      "inputs": [],
      "name": "renounceOwnership",
      "outputs": [],
      "payable": false,
      "stateMutability": "nonpayable",
      "type": "function"
    },
    {
      "constant": true,
      "inputs": [],
      "name": "owner",
      "outputs": [
        {
          "name": "",
          "type": "address"
        }
      ],
      "payable": false,
      "stateMutability": "view",
      "type": "function"
    },
    {
      "constant": true,
      "inputs": [],
      "name": "isOwner",
      "outputs": [
        {
          "name": "",
          "type": "bool"
        }
      ],
      "payable": false,
      "stateMutability": "view",
      "type": "function"
    },
    {
      "constant": true,
      "inputs": [],
      "name": "approvedToken",
      "outputs": [
        {
          "name": "",
          "type": "address"
        }
      ],
      "payable": false,
      "stateMutability": "view",
      "type": "function"
    },
    {
      "constant": false,
      "inputs": [
        {
          "name": "newOwner",
          "type": "address"
        }
      ],
      "name": "transferOwnership",
      "outputs": [],
      "payable": false,
      "stateMutability": "nonpayable",
      "type": "function"
    },
    {
      "inputs": [
        {
          "name": "approvedTokenAddress",
          "type": "address"
        }
      ],
      "payable": false,
      "stateMutability": "nonpayable",
      "type": "constructor"
    },
    {
      "payable": true,
      "stateMutability": "payable",
      "type": "fallback"
    },
    {
      "anonymous": false,
      "inputs": [
        {
          "indexed": true,
          "name": "receiver",
          "type": "address"
        },
        {
          "indexed": false,
          "name": "amount",
          "type": "uint256"
        }
      ],
      "name": "Withdrawal",
      "type": "event"
    },
    {
      "anonymous": false,
      "inputs": [
        {
          "indexed": true,
          "name": "previousOwner",
          "type": "address"
        },
        {
          "indexed": true,
          "name": "newOwner",
          "type": "address"
        }
      ],
      "name": "OwnershipTransferred",
      "type": "event"
    },
    {
      "constant": false,
      "inputs": [
        {
          "name": "receiver",
          "type": "address"
        },
        {
          "name": "shares",
          "type": "uint256"
        },
        {
          "name": "totalShares",
          "type": "uint256"
        }
      ],
      "name": "withdraw",
      "outputs": [
        {
          "name": "",
          "type": "bool"
        }
      ],
      "payable": false,
      "stateMutability": "nonpayable",
      "type": "function"
    },
    {
      "constant": false,
      "inputs": [],
      "name": "flip",
      "outputs": [
        {
          "name": "",
          "type": "bool"
        }
      ],
      "payable": false,
      "stateMutability": "nonpayable",
      "type": "function"
    }
  ],
  "bytecode": "0x608060405234801561001057600080fd5b506040516108613803806108618339818101604052602081101561003357600080fd5b50516100466001600160e01b036100b316565b600080546001600160a01b0319166001600160a01b03928316178082556040519216917f8be0079c531659141344cd1fd0a4f28419497f9722a3daafe3b4186f6b6457e0908290a3600180546001600160a01b0319166001600160a01b03929092169190911790556100b7565b3390565b61079b806100c66000396000f3fe6080604052600436106100705760003560e01c8063b5c5f6721161004e578063b5c5f672146100e1578063bab4625914610120578063cde4efa914610135578063f2fde38b1461014a57610070565b8063715018a6146100725780638da5cb5b146100875780638f32d59b146100b8575b005b34801561007e57600080fd5b5061007061017d565b34801561009357600080fd5b5061009c610220565b604080516001600160a01b039092168252519081900360200190f35b3480156100c457600080fd5b506100cd61022f565b604080519115158252519081900360200190f35b3480156100ed57600080fd5b506100cd6004803603606081101561010457600080fd5b506001600160a01b038135169060208101359060400135610253565b34801561012c57600080fd5b5061009c610418565b34801561014157600080fd5b506100cd610427565b34801561015657600080fd5b506100706004803603602081101561016d57600080fd5b50356001600160a01b03166104d0565b61018561022f565b6101d6576040805162461bcd60e51b815260206004820181905260248201527f4f776e61626c653a2063616c6c6572206973206e6f7420746865206f776e6572604482015290519081900360640190fd5b600080546040516001600160a01b03909116907f8be0079c531659141344cd1fd0a4f28419497f9722a3daafe3b4186f6b6457e0908390a3600080546001600160a01b0319169055565b6000546001600160a01b031690565b600080546001600160a01b0316610244610535565b6001600160a01b031614905090565b600061025d61022f565b6102ae576040805162461bcd60e51b815260206004820181905260248201527f4f776e61626c653a2063616c6c6572206973206e6f7420746865206f776e6572604482015290519081900360640190fd5b600154604080516370a0823160e01b8152306004820152905160009261034c9286926103409289926001600160a01b03909116916370a0823191602480820192602092909190829003018186803b15801561030857600080fd5b505afa15801561031c573d6000803e3d6000fd5b505050506040513d602081101561033257600080fd5b50519063ffffffff61053916565b9063ffffffff61059b16565b6040805182815290519192506001600160a01b038716917f7fcf532c15f0a6db0bd6d0e038bea71d30d808c7d98cb3bf7268a95bf5081b659181900360200190a26001546040805163a9059cbb60e01b81526001600160a01b038881166004830152602482018590529151919092169163a9059cbb9160448083019260209291908290030181600087803b1580156103e357600080fd5b505af11580156103f7573d6000803e3d6000fd5b505050506040513d602081101561040d57600080fd5b505195945050505050565b6001546001600160a01b031681565b60015460405160009182916001600160a01b03909116903031908381818185875af1925050503d8060008114610479576040519150601f19603f3d011682016040523d82523d6000602084013e61047e565b606091505b50509050806104cb576040805162461bcd60e51b8152602060048201526014602482015273086dedceccae4e6d2dedc40ccc2d2d8cac84074560631b604482015290519081900360640190fd5b905090565b6104d861022f565b610529576040805162461bcd60e51b815260206004820181905260248201527f4f776e61626c653a2063616c6c6572206973206e6f7420746865206f776e6572604482015290519081900360640190fd5b610532816105dd565b50565b3390565b60008261054857506000610595565b8282028284828161055557fe5b04146105925760405162461bcd60e51b81526004018080602001828103825260218152602001806107466021913960400191505060405180910390fd5b90505b92915050565b600061059283836040518060400160405280601a81526020017f536166654d6174683a206469766973696f6e206279207a65726f00000000000081525061067d565b6001600160a01b0381166106225760405162461bcd60e51b81526004018080602001828103825260268152602001806107206026913960400191505060405180910390fd5b600080546040516001600160a01b03808516939216917f8be0079c531659141344cd1fd0a4f28419497f9722a3daafe3b4186f6b6457e091a3600080546001600160a01b0319166001600160a01b0392909216919091179055565b600081836107095760405162461bcd60e51b81526004018080602001828103825283818151815260200191508051906020019080838360005b838110156106ce5781810151838201526020016106b6565b50505050905090810190601f1680156106fb5780820380516001836020036101000a031916815260200191505b509250505060405180910390fd5b50600083858161071557fe5b049594505050505056fe4f776e61626c653a206e6577206f776e657220697320746865207a65726f2061646472657373536166654d6174683a206d756c7469706c69636174696f6e206f766572666c6f77a265627a7a72305820e69b497a11e1fda1f98c3190901f506738c459fba1f52890b5713539eecf845264736f6c634300050a0032",
  "source": "pragma solidity 0.5.10;\n\nimport \"@openzeppelin/contracts/token/ERC20/IERC20.sol\";\nimport \"@openzeppelin/contracts/math/SafeMath.sol\";\nimport \"@openzeppelin/contracts/ownership/Ownable.sol\";\n\nimport \"./mock/WETH9.sol\";\n\ncontract GuildBank is Ownable {\n    using SafeMath for uint256;\n\n    IERC20 public approvedToken; // approved token contract reference\n\n    event Withdrawal(address indexed receiver, uint256 amount);\n\n    constructor(address approvedTokenAddress) public {\n        approvedToken = IERC20(approvedTokenAddress);\n    }\n\n    function withdraw(address receiver, uint256 shares, uint256 totalShares) public onlyOwner returns (bool) {\n        uint256 amount = approvedToken.balanceOf(address(this)).mul(shares).div(totalShares);\n        emit Withdrawal(receiver, amount);\n        return approvedToken.transfer(receiver, amount);\n    }\n\n    // Non-moloch v1 code below\n\n    // allow direct ETH to be sent to the bank\n    //FIXME only allow KO to send funds to bank?\n    function() external payable {}\n\n    // this allows us to flip the ETH accrued\n    // presumes the IERC20 has a defualt payment to convert ETH to token\n    // wETH does as we will be using that!\n    function flip() public returns (bool) {\n        (bool success,) = address(approvedToken).call.value(address(this).balance)(\"\");\n        require(success, \"Conversion failed :(\");\n        return success;\n    }\n}",
  "sourcePath": "/Users/andygray/workspace/known-origin-kod/smart-contracts/contracts/GuildBank.sol",
  "compiler": {
    "name": "solc",
    "version": "0.5.10+commit.5a6ea5b1.Emscripten.clang"
  },
  "schemaVersion": "3.0.22",
  "updatedAt": "2020-02-24T17:00:37.257Z",
  "devdoc": {
    "methods": {
      "isOwner()": {
        "details": "Returns true if the caller is the current owner."
      },
      "owner()": {
        "details": "Returns the address of the current owner."
      },
      "renounceOwnership()": {
        "details": "Leaves the contract without owner. It will not be possible to call `onlyOwner` functions anymore. Can only be called by the current owner.     * NOTE: Renouncing ownership will leave the contract without an owner, thereby removing any functionality that is only available to the owner."
      },
      "transferOwnership(address)": {
        "details": "Transfers ownership of the contract to a new account (`newOwner`). Can only be called by the current owner."
      }
    }
  },
  "userdoc": {
    "methods": {}
  }
}