{
  "contractName": "GuildBank",
  "abi": [
    {
      "inputs": [
        {
          "internalType": "address",
          "name": "approvedTokenAddress",
          "type": "address"
        }
      ],
      "payable": false,
      "stateMutability": "nonpayable",
      "type": "constructor"
    },
    {
      "anonymous": false,
      "inputs": [
        {
          "indexed": true,
          "internalType": "address",
          "name": "previousOwner",
          "type": "address"
        },
        {
          "indexed": true,
          "internalType": "address",
          "name": "newOwner",
          "type": "address"
        }
      ],
      "name": "OwnershipTransferred",
      "type": "event"
    },
    {
      "anonymous": false,
      "inputs": [
        {
          "indexed": true,
          "internalType": "address",
          "name": "receiver",
          "type": "address"
        },
        {
          "indexed": false,
          "internalType": "uint256",
          "name": "amount",
          "type": "uint256"
        }
      ],
      "name": "Withdrawal",
      "type": "event"
    },
    {
      "constant": true,
      "inputs": [],
      "name": "approvedToken",
      "outputs": [
        {
          "internalType": "contract IERC20",
          "name": "",
          "type": "address"
        }
      ],
      "payable": false,
      "stateMutability": "view",
      "type": "function"
    },
    {
      "constant": true,
      "inputs": [],
      "name": "isOwner",
      "outputs": [
        {
          "internalType": "bool",
          "name": "",
          "type": "bool"
        }
      ],
      "payable": false,
      "stateMutability": "view",
      "type": "function"
    },
    {
      "constant": true,
      "inputs": [],
      "name": "liquidityProvider",
      "outputs": [
        {
          "internalType": "contract ILiquidityProvider",
          "name": "",
          "type": "address"
        }
      ],
      "payable": false,
      "stateMutability": "view",
      "type": "function"
    },
    {
      "constant": true,
      "inputs": [],
      "name": "owner",
      "outputs": [
        {
          "internalType": "address",
          "name": "",
          "type": "address"
        }
      ],
      "payable": false,
      "stateMutability": "view",
      "type": "function"
    },
    {
      "constant": false,
      "inputs": [],
      "name": "renounceOwnership",
      "outputs": [],
      "payable": false,
      "stateMutability": "nonpayable",
      "type": "function"
    },
    {
      "constant": false,
      "inputs": [
        {
          "internalType": "address",
          "name": "newOwner",
          "type": "address"
        }
      ],
      "name": "transferOwnership",
      "outputs": [],
      "payable": false,
      "stateMutability": "nonpayable",
      "type": "function"
    },
    {
      "constant": false,
      "inputs": [
        {
          "internalType": "address",
          "name": "receiver",
          "type": "address"
        },
        {
          "internalType": "uint256",
          "name": "shares",
          "type": "uint256"
        },
        {
          "internalType": "uint256",
          "name": "totalShares",
          "type": "uint256"
        }
      ],
      "name": "withdraw",
      "outputs": [
        {
          "internalType": "bool",
          "name": "",
          "type": "bool"
        }
      ],
      "payable": false,
      "stateMutability": "nonpayable",
      "type": "function"
    },
    {
      "constant": false,
      "inputs": [
        {
          "internalType": "contract ILiquidityProvider",
          "name": "_liquidityProvider",
          "type": "address"
        }
      ],
      "name": "setLiquidityProvider",
      "outputs": [
        {
          "internalType": "bool",
          "name": "",
          "type": "bool"
        }
      ],
      "payable": false,
      "stateMutability": "nonpayable",
      "type": "function"
    },
    {
      "constant": false,
      "inputs": [],
      "name": "flipToApprovedToken",
      "outputs": [
        {
          "internalType": "bool",
          "name": "",
          "type": "bool"
        }
      ],
      "payable": false,
      "stateMutability": "nonpayable",
      "type": "function"
    }
  ],
  "bytecode": "0x608060405234801561001057600080fd5b506040516108ae3803806108ae8339818101604052602081101561003357600080fd5b50516100466001600160e01b036100b316565b600080546001600160a01b0319166001600160a01b03928316178082556040519216917f8be0079c531659141344cd1fd0a4f28419497f9722a3daafe3b4186f6b6457e0908290a3600180546001600160a01b0319166001600160a01b03929092169190911790556100b7565b3390565b6107e8806100c66000396000f3fe608060405234801561001057600080fd5b50600436106100935760003560e01c80638f32d59b116100665780638f32d59b146100ea578063b5c5f672146100f2578063bab4625914610124578063e624c4bc1461012c578063f2fde38b1461015257610093565b80635b8bec5514610098578063715018a6146100bc57806373ee6027146100c65780638da5cb5b146100e2575b600080fd5b6100a0610178565b604080516001600160a01b039092168252519081900360200190f35b6100c4610187565b005b6100ce610218565b604080519115158252519081900360200190f35b6100a06102ac565b6100ce6102bb565b6100ce6004803603606081101561010857600080fd5b506001600160a01b0381351690602081013590604001356102df565b6100a0610492565b6100ce6004803603602081101561014257600080fd5b50356001600160a01b03166104a1565b6100c46004803603602081101561016857600080fd5b50356001600160a01b031661050f565b6002546001600160a01b031681565b61018f6102bb565b6101ce576040805162461bcd60e51b81526020600482018190526024820152600080516020610794833981519152604482015290519081900360640190fd5b600080546040516001600160a01b03909116907f8be0079c531659141344cd1fd0a4f28419497f9722a3daafe3b4186f6b6457e0908390a3600080546001600160a01b0319169055565b600254600154604080516311f4f02d60e21b81524760048201526001600160a01b039283166024820152306044820152905160009392909216916347d3c0b49160648082019260209290919082900301818787803b15801561027957600080fd5b505af115801561028d573d6000803e3d6000fd5b505050506040513d60208110156102a357600080fd5b50600191505090565b6000546001600160a01b031690565b600080546001600160a01b03166102d0610562565b6001600160a01b031614905090565b60006102e96102bb565b610328576040805162461bcd60e51b81526020600482018190526024820152600080516020610794833981519152604482015290519081900360640190fd5b600154604080516370a0823160e01b815230600482015290516000926103c69286926103ba9289926001600160a01b03909116916370a0823191602480820192602092909190829003018186803b15801561038257600080fd5b505afa158015610396573d6000803e3d6000fd5b505050506040513d60208110156103ac57600080fd5b50519063ffffffff61056616565b9063ffffffff6105c816565b6040805182815290519192506001600160a01b038716917f7fcf532c15f0a6db0bd6d0e038bea71d30d808c7d98cb3bf7268a95bf5081b659181900360200190a26001546040805163a9059cbb60e01b81526001600160a01b038881166004830152602482018590529151919092169163a9059cbb9160448083019260209291908290030181600087803b15801561045d57600080fd5b505af1158015610471573d6000803e3d6000fd5b505050506040513d602081101561048757600080fd5b505195945050505050565b6001546001600160a01b031681565b60006104ab6102bb565b6104ea576040805162461bcd60e51b81526020600482018190526024820152600080516020610794833981519152604482015290519081900360640190fd5b50600280546001600160a01b0383166001600160a01b03199091161790556001919050565b6105176102bb565b610556576040805162461bcd60e51b81526020600482018190526024820152600080516020610794833981519152604482015290519081900360640190fd5b61055f8161060a565b50565b3390565b600082610575575060006105c2565b8282028284828161058257fe5b04146105bf5760405162461bcd60e51b81526004018080602001828103825260218152602001806107736021913960400191505060405180910390fd5b90505b92915050565b60006105bf83836040518060400160405280601a81526020017f536166654d6174683a206469766973696f6e206279207a65726f0000000000008152506106aa565b6001600160a01b03811661064f5760405162461bcd60e51b815260040180806020018281038252602681526020018061074d6026913960400191505060405180910390fd5b600080546040516001600160a01b03808516939216917f8be0079c531659141344cd1fd0a4f28419497f9722a3daafe3b4186f6b6457e091a3600080546001600160a01b0319166001600160a01b0392909216919091179055565b600081836107365760405162461bcd60e51b81526004018080602001828103825283818151815260200191508051906020019080838360005b838110156106fb5781810151838201526020016106e3565b50505050905090810190601f1680156107285780820380516001836020036101000a031916815260200191505b509250505060405180910390fd5b50600083858161074257fe5b049594505050505056fe4f776e61626c653a206e6577206f776e657220697320746865207a65726f2061646472657373536166654d6174683a206d756c7469706c69636174696f6e206f766572666c6f774f776e61626c653a2063616c6c6572206973206e6f7420746865206f776e6572a265627a7a72315820821a0cf3e0f447c85826651afb40e1b7d8ed41466879173ae827b7a29bc1fd7664736f6c634300050e0032",
  "source": "pragma solidity 0.5.14;\n\nimport \"@openzeppelin/contracts/token/ERC20/IERC20.sol\";\nimport \"@openzeppelin/contracts/math/SafeMath.sol\";\nimport \"@openzeppelin/contracts/ownership/Ownable.sol\";\n\nimport \"./ILiquidityProvider.sol\";\n\ncontract GuildBank is Ownable {\n    using SafeMath for uint256;\n\n    IERC20 public approvedToken; // approved token contract reference\n\n    event Withdrawal(address indexed receiver, uint256 amount);\n\n    constructor(address approvedTokenAddress) public {\n        approvedToken = IERC20(approvedTokenAddress);\n    }\n\n    function withdraw(address receiver, uint256 shares, uint256 totalShares) public onlyOwner returns (bool) {\n        uint256 amount = approvedToken.balanceOf(address(this)).mul(shares).div(totalShares);\n        emit Withdrawal(receiver, amount);\n        return approvedToken.transfer(receiver, amount);\n    }\n\n    // Non-moloch v1 code below\n    ILiquidityProvider public liquidityProvider; // KOD needs a way to flip native ETH to ERC20 tokens\n\n    function setLiquidityProvider(ILiquidityProvider _liquidityProvider) public onlyOwner returns (bool) {\n        liquidityProvider = _liquidityProvider;\n        return true;\n    }\n\n    function flipToApprovedToken() public returns (bool) {\n        liquidityProvider.flipEthToERC20(address(this).balance, approvedToken, address(this));\n        return true;\n    }\n}",
  "sourcePath": "/Users/andygray/workspace/known-origin-kod/smart-contracts/contracts/GuildBank.sol",
  "compiler": {
    "name": "solc",
    "version": "0.5.14+commit.01f1aaa4.Emscripten.clang"
  },
  "schemaVersion": "3.0.22",
  "updatedAt": "2020-01-29T15:58:16.310Z",
  "devdoc": {
    "methods": {
      "isOwner()": {
        "details": "Returns true if the caller is the current owner."
      },
      "owner()": {
        "details": "Returns the address of the current owner."
      },
      "renounceOwnership()": {
        "details": "Leaves the contract without owner. It will not be possible to call `onlyOwner` functions anymore. Can only be called by the current owner.     * NOTE: Renouncing ownership will leave the contract without an owner, thereby removing any functionality that is only available to the owner."
      },
      "transferOwnership(address)": {
        "details": "Transfers ownership of the contract to a new account (`newOwner`). Can only be called by the current owner."
      }
    }
  },
  "userdoc": {
    "methods": {}
  }
}