{
  "contractName": "KOSelfServiceMock",
  "abi": [
    {
      "constant": false,
      "inputs": [
        {
          "name": "_artist",
          "type": "address"
        },
        {
          "name": "_enableAuction",
          "type": "bool"
        },
        {
          "name": "_optionalSplitAddress",
          "type": "address"
        },
        {
          "name": "_optionalSplitRate",
          "type": "uint256"
        },
        {
          "name": "_totalAvailable",
          "type": "uint256"
        },
        {
          "name": "_priceInWei",
          "type": "uint256"
        },
        {
          "name": "_startDate",
          "type": "uint256"
        },
        {
          "name": "_endDate",
          "type": "uint256"
        },
        {
          "name": "_artistCommission",
          "type": "uint256"
        },
        {
          "name": "_editionType",
          "type": "uint256"
        },
        {
          "name": "_tokenUri",
          "type": "string"
        }
      ],
      "name": "createEditionFor",
      "outputs": [
        {
          "name": "_editionNumber",
          "type": "uint256"
        }
      ],
      "payable": false,
      "stateMutability": "nonpayable",
      "type": "function"
    }
  ],
  "bytecode": "0x608060405234801561001057600080fd5b50610149806100206000396000f3fe608060405234801561001057600080fd5b506004361061002b5760003560e01c8063c6b5bb3a14610030575b600080fd5b6100f1600480360361016081101561004757600080fd5b6001600160a01b038235811692602081013515159260408201359092169160608201359160808101359160a08201359160c08101359160e08201359161010081013591610120820135919081019061016081016101408201356401000000008111156100b257600080fd5b8201836020820111156100c457600080fd5b803590602001918460018302840111640100000000831117156100e657600080fd5b509092509050610103565b60408051918252519081900360200190f35b439c9b50505050505050505050505056fea265627a7a723058206ed45a255052b285294fc6b58253b859f46371529ea2a05fcfd7468831f3e28a64736f6c634300050a0032",
  "source": "pragma solidity 0.5.10;\n\nimport \"../ISelfServeEditionCuration.sol\";\n\ncontract KOSelfServiceMock is ISelfServeEditionCuration {\n    function createEditionFor(\n        address _artist,\n        bool _enableAuction,\n        address _optionalSplitAddress,\n        uint256 _optionalSplitRate,\n        uint256 _totalAvailable,\n        uint256 _priceInWei,\n        uint256 _startDate,\n        uint256 _endDate,\n        uint256 _artistCommission,\n        uint256 _editionType,\n        string calldata _tokenUri\n    ) external returns (uint256 _editionNumber) {\n        return block.number;\n    }\n}",
  "sourcePath": "/Users/andygray/workspace/known-origin-kod/smart-contracts/contracts/mock/KOSelfServiceMock.sol",
  "compiler": {
    "name": "solc",
    "version": "0.5.10+commit.5a6ea5b1.Emscripten.clang"
  },
  "schemaVersion": "3.0.22",
  "updatedAt": "2020-02-13T17:06:04.346Z",
  "networkType": "ethereum",
  "devdoc": {
    "methods": {}
  },
  "userdoc": {
    "methods": {}
  }
}