{
  "contractName": "KOSelfServiceMock",
  "abi": [
    {
      "constant": false,
      "inputs": [
        {
          "name": "_enableAuction",
          "type": "bool"
        },
        {
          "name": "_optionalSplitAddress",
          "type": "address"
        },
        {
          "name": "_optionalSplitRate",
          "type": "uint256"
        },
        {
          "name": "_totalAvailable",
          "type": "uint256"
        },
        {
          "name": "_priceInWei",
          "type": "uint256"
        },
        {
          "name": "_startDate",
          "type": "uint256"
        },
        {
          "name": "_endDate",
          "type": "uint256"
        },
        {
          "name": "_artistCommission",
          "type": "uint256"
        },
        {
          "name": "_editionType",
          "type": "uint256"
        },
        {
          "name": "_tokenUri",
          "type": "string"
        }
      ],
      "name": "createEdition",
      "outputs": [
        {
          "name": "_editionNumber",
          "type": "uint256"
        }
      ],
      "payable": false,
      "stateMutability": "nonpayable",
      "type": "function"
    }
  ],
  "bytecode": "0x608060405234801561001057600080fd5b5061013d806100206000396000f3fe608060405234801561001057600080fd5b506004361061002b5760003560e01c8063a7e717af14610030575b600080fd5b6100e6600480360361014081101561004757600080fd5b81351515916001600160a01b036020820135169160408201359160608101359160808201359160a08101359160c08201359160e081013591610100820135919081019061014081016101208201356401000000008111156100a757600080fd5b8201836020820111156100b957600080fd5b803590602001918460018302840111640100000000831117156100db57600080fd5b5090925090506100f8565b60408051918252519081900360200190f35b439b9a505050505050505050505056fea265627a7a7230582032112a0f9331e512857f8998fcb23d763fd8ad6afbb652f0538c973f94206f7a64736f6c634300050a0032",
  "source": "pragma solidity 0.5.10;\n\nimport \"../ICreateEdition.sol\";\n\ncontract KOSelfServiceMock is ICreateEdition {\n\n    function createEdition(\n        bool _enableAuction,\n        address _optionalSplitAddress,\n        uint256 _optionalSplitRate,\n        uint256 _totalAvailable,\n        uint256 _priceInWei,\n        uint256 _startDate,\n        uint256 _endDate,\n        uint256 _artistCommission,\n        uint256 _editionType,\n        string calldata _tokenUri\n    )\n    external\n    returns (uint256 _editionNumber) {\n        return block.number;\n    }\n}",
  "sourcePath": "/Users/andygray/workspace/known-origin-kod/smart-contracts/contracts/mock/KOSelfServiceMock.sol",
  "compiler": {
    "name": "solc",
    "version": "0.5.10+commit.5a6ea5b1.Emscripten.clang"
  },
  "schemaVersion": "3.0.22",
  "updatedAt": "2020-01-31T16:46:16.676Z",
  "networkType": "ethereum",
  "devdoc": {
    "methods": {}
  },
  "userdoc": {
    "methods": {}
  }
}