{
  "contractName": "MolochV1KOD",
  "abi": [
    {
      "constant": true,
      "inputs": [],
      "name": "processingReward",
      "outputs": [
        {
          "name": "",
          "type": "uint256"
        }
      ],
      "payable": false,
      "stateMutability": "view",
      "type": "function"
    },
    {
      "constant": true,
      "inputs": [
        {
          "name": "",
          "type": "address"
        }
      ],
      "name": "members",
      "outputs": [
        {
          "name": "delegateKey",
          "type": "address"
        },
        {
          "name": "shares",
          "type": "uint256"
        },
        {
          "name": "exists",
          "type": "bool"
        },
        {
          "name": "highestIndexYesVote",
          "type": "uint256"
        }
      ],
      "payable": false,
      "stateMutability": "view",
      "type": "function"
    },
    {
      "constant": true,
      "inputs": [],
      "name": "totalSharesRequested",
      "outputs": [
        {
          "name": "",
          "type": "uint256"
        }
      ],
      "payable": false,
      "stateMutability": "view",
      "type": "function"
    },
    {
      "constant": true,
      "inputs": [],
      "name": "totalShares",
      "outputs": [
        {
          "name": "",
          "type": "uint256"
        }
      ],
      "payable": false,
      "stateMutability": "view",
      "type": "function"
    },
    {
      "constant": true,
      "inputs": [
        {
          "name": "",
          "type": "uint256"
        }
      ],
      "name": "proposalQueue",
      "outputs": [
        {
          "name": "proposer",
          "type": "address"
        },
        {
          "name": "applicant",
          "type": "address"
        },
        {
          "name": "sharesRequested",
          "type": "uint256"
        },
        {
          "name": "startingPeriod",
          "type": "uint256"
        },
        {
          "name": "yesVotes",
          "type": "uint256"
        },
        {
          "name": "noVotes",
          "type": "uint256"
        },
        {
          "name": "processed",
          "type": "bool"
        },
        {
          "name": "didPass",
          "type": "bool"
        },
        {
          "name": "aborted",
          "type": "bool"
        },
        {
          "name": "tokenTribute",
          "type": "uint256"
        },
        {
          "name": "details",
          "type": "string"
        },
        {
          "name": "maxTotalSharesAtYesVote",
          "type": "uint256"
        }
      ],
      "payable": false,
      "stateMutability": "view",
      "type": "function"
    },
    {
      "constant": true,
      "inputs": [
        {
          "name": "",
          "type": "address"
        }
      ],
      "name": "memberAddressByDelegateKey",
      "outputs": [
        {
          "name": "",
          "type": "address"
        }
      ],
      "payable": false,
      "stateMutability": "view",
      "type": "function"
    },
    {
      "constant": true,
      "inputs": [
        {
          "name": "",
          "type": "uint256"
        }
      ],
      "name": "nftProposals",
      "outputs": [
        {
          "name": "totalAvailable",
          "type": "uint256"
        },
        {
          "name": "priceInWei",
          "type": "uint256"
        },
        {
          "name": "tokenUri",
          "type": "string"
        },
        {
          "name": "daoSplit",
          "type": "uint256"
        },
        {
          "name": "proposingArtistSplit",
          "type": "uint256"
        }
      ],
      "payable": false,
      "stateMutability": "view",
      "type": "function"
    },
    {
      "constant": true,
      "inputs": [],
      "name": "gracePeriodLength",
      "outputs": [
        {
          "name": "",
          "type": "uint256"
        }
      ],
      "payable": false,
      "stateMutability": "view",
      "type": "function"
    },
    {
      "constant": true,
      "inputs": [],
      "name": "abortWindow",
      "outputs": [
        {
          "name": "",
          "type": "uint256"
        }
      ],
      "payable": false,
      "stateMutability": "view",
      "type": "function"
    },
    {
      "constant": true,
      "inputs": [],
      "name": "summoningTime",
      "outputs": [
        {
          "name": "",
          "type": "uint256"
        }
      ],
      "payable": false,
      "stateMutability": "view",
      "type": "function"
    },
    {
      "constant": true,
      "inputs": [],
      "name": "votingPeriodLength",
      "outputs": [
        {
          "name": "",
          "type": "uint256"
        }
      ],
      "payable": false,
      "stateMutability": "view",
      "type": "function"
    },
    {
      "constant": true,
      "inputs": [],
      "name": "proposalDeposit",
      "outputs": [
        {
          "name": "",
          "type": "uint256"
        }
      ],
      "payable": false,
      "stateMutability": "view",
      "type": "function"
    },
    {
      "constant": true,
      "inputs": [],
      "name": "guildBank",
      "outputs": [
        {
          "name": "",
          "type": "address"
        }
      ],
      "payable": false,
      "stateMutability": "view",
      "type": "function"
    },
    {
      "constant": true,
      "inputs": [],
      "name": "dilutionBound",
      "outputs": [
        {
          "name": "",
          "type": "uint256"
        }
      ],
      "payable": false,
      "stateMutability": "view",
      "type": "function"
    },
    {
      "constant": true,
      "inputs": [],
      "name": "periodDuration",
      "outputs": [
        {
          "name": "",
          "type": "uint256"
        }
      ],
      "payable": false,
      "stateMutability": "view",
      "type": "function"
    },
    {
      "constant": true,
      "inputs": [],
      "name": "approvedToken",
      "outputs": [
        {
          "name": "",
          "type": "address"
        }
      ],
      "payable": false,
      "stateMutability": "view",
      "type": "function"
    },
    {
      "constant": true,
      "inputs": [],
      "name": "selfServeEditionCuration",
      "outputs": [
        {
          "name": "",
          "type": "address"
        }
      ],
      "payable": false,
      "stateMutability": "view",
      "type": "function"
    },
    {
      "inputs": [
        {
          "name": "summoner",
          "type": "address"
        },
        {
          "name": "_approvedToken",
          "type": "address"
        },
        {
          "name": "_periodDuration",
          "type": "uint256"
        },
        {
          "name": "_votingPeriodLength",
          "type": "uint256"
        },
        {
          "name": "_gracePeriodLength",
          "type": "uint256"
        },
        {
          "name": "_abortWindow",
          "type": "uint256"
        },
        {
          "name": "_proposalDeposit",
          "type": "uint256"
        },
        {
          "name": "_dilutionBound",
          "type": "uint256"
        },
        {
          "name": "_processingReward",
          "type": "uint256"
        },
        {
          "name": "_selfServeEditionCuration",
          "type": "address"
        }
      ],
      "payable": false,
      "stateMutability": "nonpayable",
      "type": "constructor"
    },
    {
      "anonymous": false,
      "inputs": [
        {
          "indexed": false,
          "name": "proposalIndex",
          "type": "uint256"
        },
        {
          "indexed": true,
          "name": "delegateKey",
          "type": "address"
        },
        {
          "indexed": true,
          "name": "memberAddress",
          "type": "address"
        },
        {
          "indexed": true,
          "name": "applicant",
          "type": "address"
        },
        {
          "indexed": false,
          "name": "tokenTribute",
          "type": "uint256"
        },
        {
          "indexed": false,
          "name": "sharesRequested",
          "type": "uint256"
        }
      ],
      "name": "SubmitProposal",
      "type": "event"
    },
    {
      "anonymous": false,
      "inputs": [
        {
          "indexed": true,
          "name": "proposalIndex",
          "type": "uint256"
        },
        {
          "indexed": true,
          "name": "delegateKey",
          "type": "address"
        },
        {
          "indexed": true,
          "name": "memberAddress",
          "type": "address"
        },
        {
          "indexed": false,
          "name": "uintVote",
          "type": "uint8"
        }
      ],
      "name": "SubmitVote",
      "type": "event"
    },
    {
      "anonymous": false,
      "inputs": [
        {
          "indexed": true,
          "name": "proposalIndex",
          "type": "uint256"
        },
        {
          "indexed": true,
          "name": "applicant",
          "type": "address"
        },
        {
          "indexed": true,
          "name": "memberAddress",
          "type": "address"
        },
        {
          "indexed": false,
          "name": "tokenTribute",
          "type": "uint256"
        },
        {
          "indexed": false,
          "name": "sharesRequested",
          "type": "uint256"
        },
        {
          "indexed": false,
          "name": "didPass",
          "type": "bool"
        }
      ],
      "name": "ProcessProposal",
      "type": "event"
    },
    {
      "anonymous": false,
      "inputs": [
        {
          "indexed": true,
          "name": "memberAddress",
          "type": "address"
        },
        {
          "indexed": false,
          "name": "sharesToBurn",
          "type": "uint256"
        }
      ],
      "name": "Ragequit",
      "type": "event"
    },
    {
      "anonymous": false,
      "inputs": [
        {
          "indexed": true,
          "name": "proposalIndex",
          "type": "uint256"
        },
        {
          "indexed": false,
          "name": "applicantAddress",
          "type": "address"
        }
      ],
      "name": "Abort",
      "type": "event"
    },
    {
      "anonymous": false,
      "inputs": [
        {
          "indexed": true,
          "name": "memberAddress",
          "type": "address"
        },
        {
          "indexed": false,
          "name": "newDelegateKey",
          "type": "address"
        }
      ],
      "name": "UpdateDelegateKey",
      "type": "event"
    },
    {
      "anonymous": false,
      "inputs": [
        {
          "indexed": true,
          "name": "summoner",
          "type": "address"
        },
        {
          "indexed": false,
          "name": "shares",
          "type": "uint256"
        }
      ],
      "name": "SummonComplete",
      "type": "event"
    },
    {
      "constant": false,
      "inputs": [
        {
          "name": "applicant",
          "type": "address"
        },
        {
          "name": "tokenTribute",
          "type": "uint256"
        },
        {
          "name": "sharesRequested",
          "type": "uint256"
        },
        {
          "name": "details",
          "type": "string"
        }
      ],
      "name": "submitProposal",
      "outputs": [],
      "payable": false,
      "stateMutability": "nonpayable",
      "type": "function"
    },
    {
      "constant": false,
      "inputs": [
        {
          "name": "proposalIndex",
          "type": "uint256"
        },
        {
          "name": "uintVote",
          "type": "uint8"
        }
      ],
      "name": "submitVote",
      "outputs": [],
      "payable": false,
      "stateMutability": "nonpayable",
      "type": "function"
    },
    {
      "constant": false,
      "inputs": [
        {
          "name": "proposalIndex",
          "type": "uint256"
        }
      ],
      "name": "processProposal",
      "outputs": [],
      "payable": false,
      "stateMutability": "nonpayable",
      "type": "function"
    },
    {
      "constant": false,
      "inputs": [
        {
          "name": "sharesToBurn",
          "type": "uint256"
        }
      ],
      "name": "ragequit",
      "outputs": [],
      "payable": false,
      "stateMutability": "nonpayable",
      "type": "function"
    },
    {
      "constant": false,
      "inputs": [
        {
          "name": "proposalIndex",
          "type": "uint256"
        }
      ],
      "name": "abort",
      "outputs": [],
      "payable": false,
      "stateMutability": "nonpayable",
      "type": "function"
    },
    {
      "constant": false,
      "inputs": [
        {
          "name": "newDelegateKey",
          "type": "address"
        }
      ],
      "name": "updateDelegateKey",
      "outputs": [],
      "payable": false,
      "stateMutability": "nonpayable",
      "type": "function"
    },
    {
      "constant": true,
      "inputs": [],
      "name": "getCurrentPeriod",
      "outputs": [
        {
          "name": "",
          "type": "uint256"
        }
      ],
      "payable": false,
      "stateMutability": "view",
      "type": "function"
    },
    {
      "constant": true,
      "inputs": [],
      "name": "getProposalQueueLength",
      "outputs": [
        {
          "name": "",
          "type": "uint256"
        }
      ],
      "payable": false,
      "stateMutability": "view",
      "type": "function"
    },
    {
      "constant": true,
      "inputs": [
        {
          "name": "highestIndexYesVote",
          "type": "uint256"
        }
      ],
      "name": "canRagequit",
      "outputs": [
        {
          "name": "",
          "type": "bool"
        }
      ],
      "payable": false,
      "stateMutability": "view",
      "type": "function"
    },
    {
      "constant": true,
      "inputs": [
        {
          "name": "startingPeriod",
          "type": "uint256"
        }
      ],
      "name": "hasVotingPeriodExpired",
      "outputs": [
        {
          "name": "",
          "type": "bool"
        }
      ],
      "payable": false,
      "stateMutability": "view",
      "type": "function"
    },
    {
      "constant": true,
      "inputs": [
        {
          "name": "memberAddress",
          "type": "address"
        },
        {
          "name": "proposalIndex",
          "type": "uint256"
        }
      ],
      "name": "getMemberProposalVote",
      "outputs": [
        {
          "name": "",
          "type": "uint8"
        }
      ],
      "payable": false,
      "stateMutability": "view",
      "type": "function"
    },
    {
      "constant": false,
      "inputs": [
        {
          "name": "sharesRequested",
          "type": "uint256"
        },
        {
          "name": "details",
          "type": "string"
        },
        {
          "name": "totalAvailable",
          "type": "uint256"
        },
        {
          "name": "priceInWei",
          "type": "uint256"
        },
        {
          "name": "tokenUri",
          "type": "string"
        },
        {
          "name": "daoSplit",
          "type": "uint256"
        },
        {
          "name": "proposingArtistSplit",
          "type": "uint256"
        }
      ],
      "name": "submitNFTProposal",
      "outputs": [],
      "payable": false,
      "stateMutability": "nonpayable",
      "type": "function"
    },
    {
      "constant": false,
      "inputs": [
        {
          "name": "proposalIndex",
          "type": "uint256"
        }
      ],
      "name": "processNFTProposal",
      "outputs": [],
      "payable": false,
      "stateMutability": "nonpayable",
      "type": "function"
    }
  ],
  "bytecode": "0x60806040526000600a556000600b553480156200001b57600080fd5b506040516200436a3803806200436a83398181016040526101408110156200004257600080fd5b508051602082015160408301516060840151608085015160a086015160c087015160e088015161010089015161012090990151979896979596949593949293919290916001600160a01b038a16620000e6576040517f08c379a000000000000000000000000000000000000000000000000000000000815260040180806020018281038252602a81526020018062004135602a913960400191505060405180910390fd5b6001600160a01b03891662000147576040517f08c379a00000000000000000000000000000000000000000000000000000000081526004018080602001828103825260308152602001806200430a6030913960400191505060405180910390fd5b60008811620001a2576040517f08c379a0000000000000000000000000000000000000000000000000000000008152600401808060200182810382526031815260200180620042d96031913960400191505060405180910390fd5b60008711620001fd576040517f08c379a0000000000000000000000000000000000000000000000000000000008152600401808060200182810382526035815260200180620042a46035913960400191505060405180910390fd5b670de0b6b3a764000087111562000260576040517f08c379a00000000000000000000000000000000000000000000000000000000081526004018080602001828103825260378152602001806200415f6037913960400191505060405180910390fd5b670de0b6b3a7640000861115620002c3576040517f08c379a00000000000000000000000000000000000000000000000000000000081526004018080602001828103825260368152602001806200426e6036913960400191505060405180910390fd5b600085116200031e576040517f08c379a000000000000000000000000000000000000000000000000000000000815260040180806020018281038252602e81526020018062004107602e913960400191505060405180910390fd5b8685111562000379576040517f08c379a0000000000000000000000000000000000000000000000000000000008152600401808060200182810382526057815260200180620042176057913960600191505060405180910390fd5b60008311620003d4576040517f08c379a00000000000000000000000000000000000000000000000000000000081526004018080602001828103825260308152602001806200433a6030913960400191505060405180910390fd5b670de0b6b3a764000083111562000437576040517f08c379a0000000000000000000000000000000000000000000000000000000008152600401808060200182810382526032815260200180620041e56032913960400191505060405180910390fd5b8184101562000492576040517f08c379a000000000000000000000000000000000000000000000000000000000815260040180806020018281038252604f81526020018062004196604f913960600191505060405180910390fd5b600880546001600160a01b0319166001600160a01b038b161790556040518990620004bd90620006c6565b6001600160a01b03909116815260405190819003602001906000f080158015620004eb573d6000803e3d6000fd5b50600960006101000a8154816001600160a01b0302191690836001600160a01b03160217905550876000819055508660018190555085600281905550846003819055508360048190555082600581905550816006819055504260078190555060405180608001604052808b6001600160a01b03168152602001600181526020016001151581526020016000815250600c60008c6001600160a01b03166001600160a01b0316815260200190815260200160002060008201518160000160006101000a8154816001600160a01b0302191690836001600160a01b031602179055506020820151816001015560408201518160020160006101000a81548160ff0219169083151502179055506060820151816003015590505089600d60008c6001600160a01b03166001600160a01b0316815260200190815260200160002060006101000a8154816001600160a01b0302191690836001600160a01b031602179055506001600a81905550896001600160a01b03167f03995a801b13c36325306deef859ef977ce61c6e15a794281bf969d20482522760016040518082815260200191505060405180910390a2600f80546001600160a01b0319166001600160a01b039290921691909117905550620006d4975050505050505050565b61086180620038a683390190565b6131c280620006e46000396000f3fe608060405234801561001057600080fd5b50600436106101da5760003560e01c80638340bbce11610104578063a42afd29116100a2578063cc22652411610071578063cc226524146106a4578063e50701f4146106ac578063e63bc62d146106c9578063f4a82e96146106e6576101da565b8063a42afd2914610684578063afe5475f1461068c578063b470aade14610694578063bab462591461069c576101da565b80639425a476116100de5780639425a4761461054e578063962006c31461057f57806399653fbe14610641578063a3dc380014610667576101da565b80638340bbce146105215780638436593f146105295780638b15a60514610546576101da565b80633a98ef391161017c57806363858f2d1161014b57806363858f2d146105015780637896ddaf14610509578063797daf70146105115780637d5b6c7214610519576101da565b80633a98ef39146102f45780633b214a74146102fc578063402c17941461040e57806354ab958814610450576101da565b806308ae4b0c116101b857806308ae4b0c146102515780631163de5f146102a75780631a396a4a146102c65780632582bf2a146102ce576101da565b806303e32fa1146101df578063044a0ca8146101f9578063086146d214610249575b600080fd5b6101e761082b565b60408051918252519081900360200190f35b6102256004803603604081101561020f57600080fd5b506001600160a01b038135169060200135610831565b6040518082600281111561023557fe5b60ff16815260200191505060405180910390f35b6101e761090d565b6102776004803603602081101561026757600080fd5b50356001600160a01b031661093c565b604080516001600160a01b0390951685526020850193909352901515838301526060830152519081900360800190f35b6102c4600480360360208110156102bd57600080fd5b5035610973565b005b6101e7610b38565b6102c4600480360360208110156102e457600080fd5b50356001600160a01b0316610b3e565b6101e7610d2f565b6103196004803603602081101561031257600080fd5b5035610d35565b604051808d6001600160a01b03166001600160a01b031681526020018c6001600160a01b03166001600160a01b031681526020018b81526020018a815260200189815260200188815260200187151515158152602001861515151581526020018515151515815260200184815260200180602001838152602001828103825284818151815260200191508051906020019080838360005b838110156103c85781810151838201526020016103b0565b50505050905090810190601f1680156103f55780820380516001836020036101000a031916815260200191505b509d505050505050505050505050505060405180910390f35b6104346004803603602081101561042457600080fd5b50356001600160a01b0316610e44565b604080516001600160a01b039092168252519081900360200190f35b61046d6004803603602081101561046657600080fd5b5035610e5f565b6040518086815260200185815260200180602001848152602001838152602001828103825285818151815260200191508051906020019080838360005b838110156104c25781810151838201526020016104aa565b50505050905090810190601f1680156104ef5780820380516001836020036101000a031916815260200191505b50965050505050505060405180910390f35b6101e7610f14565b6101e7610f1a565b6101e7610f20565b6101e7610f26565b6101e7610f2c565b6102c46004803603602081101561053f57600080fd5b5035610f32565b6101e761114a565b61056b6004803603602081101561056457600080fd5b5035611150565b604080519115158252519081900360200190f35b6102c46004803603608081101561059557600080fd5b6001600160a01b0382351691602081013591604082013591908101906080810160608201356401000000008111156105cc57600080fd5b8201836020820111156105de57600080fd5b8035906020019184600183028401116401000000008311171561060057600080fd5b91908080601f016020809104026020016040519081016040528093929190818152602001838380828437600092019190915250929550611177945050505050565b6102c46004803603604081101561065757600080fd5b508035906020013560ff166116d4565b61056b6004803603602081101561067d57600080fd5b5035611ace565b610434611b3b565b6101e7611b4a565b6101e7611b50565b610434611b56565b610434611b65565b6102c4600480360360208110156106c257600080fd5b5035611b74565b6102c4600480360360208110156106df57600080fd5b5035611de5565b6102c4600480360360e08110156106fc57600080fd5b8135919081019060408101602082013564010000000081111561071e57600080fd5b82018360208201111561073057600080fd5b8035906020019184600183028401116401000000008311171561075257600080fd5b91908080601f01602080910402602001604051908101604052809392919081815260200183838082843760009201919091525092958435956020860135959194509250606081019150604001356401000000008111156107b157600080fd5b8201836020820111156107c357600080fd5b803590602001918460018302840111640100000000831117156107e557600080fd5b91908080601f0160208091040260200160405190810160405280939291908181526020018383808284376000920191909152509295505082359350505060200135612551565b60065481565b6001600160a01b0382166000908152600c602052604081206002015460ff1661088b5760405162461bcd60e51b8152600401808060200182810382526034815260200180612e636034913960400191505060405180910390fd5b600e5482106108cb5760405162461bcd60e51b8152600401808060200182810382526036815260200180612c096036913960400191505060405180910390fd5b600e82815481106108d857fe5b600091825260208083206001600160a01b0387168452600a600b90930201919091019052604090205460ff1690505b92915050565b600061093660005461092a6007544261266290919063ffffffff16565b9063ffffffff6126ab16565b90505b90565b600c6020526000908152604090208054600182015460028301546003909301546001600160a01b0390921692909160ff9091169084565b61097c81611de5565b6000600e828154811061098b57fe5b6000918252602080832085845260109091526040909220600b919091029091016006810154909250610100900460ff1615610b3357600f5460095483546004808501548554600187810154600389015460405163635add9d60e11b81526001600160a01b039889169681018781526024820185905297891660448201819052606482018790526084820186905260a48201849052600060c4830181905260e483018190526101048301849052610124830186905261016061014484019081526002808f018054600019818b16156101000201169190910461016486018190529c909d169c63c6b5bb3a9c9a9b979a939998979295869590948c94929391610184019084908015610adc5780601f10610ab157610100808354040283529160200191610adc565b820191906000526020600020905b815481529060010190602001808311610abf57829003601f168201915b50509c50505050505050505050505050602060405180830381600087803b158015610b0657600080fd5b505af1158015610b1a573d6000803e3d6000fd5b505050506040513d6020811015610b3057600080fd5b50505b505050565b600b5481565b336000908152600c6020526040902060010154610b8c5760405162461bcd60e51b8152600401808060200182810382526021815260200180612ae56021913960400191505060405180910390fd5b6001600160a01b038116610bd15760405162461bcd60e51b81526004018080602001828103825260368152602001806130b96036913960400191505060405180910390fd5b6001600160a01b0381163314610ca6576001600160a01b0381166000908152600c602052604090206002015460ff1615610c3c5760405162461bcd60e51b815260040180806020018281038252603b815260200180612aaa603b913960400191505060405180910390fd5b6001600160a01b038082166000908152600d60209081526040808320549093168252600c9052206002015460ff1615610ca65760405162461bcd60e51b8152600401808060200182810382526041815260200180612f8e6041913960600191505060405180910390fd5b336000818152600c6020908152604080832080546001600160a01b039081168552600d845282852080546001600160a01b031990811690915590871680865294839020805482168717905581541684178155815193845290519093927fde7b64a369e10562cc2e71f0f1f944eaf144b75fead6ecb51fac9c4dd693488592908290030190a25050565b600a5481565b600e8181548110610d4257fe5b6000918252602091829020600b909102018054600180830154600280850154600386015460048701546005880154600689015460078a015460088b01805460408051601f6000199d8416156101009081029e909e019093169a909a049182018f90048f028a018f0190528089526001600160a01b039b8c169e5098909a169b959a94999398929760ff808416989484048116976201000090940416959194919392830182828015610e345780601f10610e0957610100808354040283529160200191610e34565b820191906000526020600020905b815481529060010190602001808311610e1757829003601f168201915b505050505090806009015490508c565b600d602052600090815260409020546001600160a01b031681565b60106020908152600091825260409182902080546001808301546002808501805488519481161561010002600019011691909104601f810187900487028401870190975286835292959094919291830182828015610efe5780601f10610ed357610100808354040283529160200191610efe565b820191906000526020600020905b815481529060010190602001808311610ee157829003601f168201915b5050505050908060030154908060040154905085565b60025481565b60035481565b600e5490565b60075481565b60015481565b336000908152600c6020526040902060010154610f805760405162461bcd60e51b8152600401808060200182810382526021815260200180612ae56021913960400191505060405180910390fd5b600a54336000908152600c602052604090206001810154831115610fd55760405162461bcd60e51b815260040180806020018281038252602681526020018061306c6026913960400191505060405180910390fd5b610fe28160030154611ace565b61101d5760405162461bcd60e51b815260040180806020018281038252605e815260200180612d7b605e913960600191505060405180910390fd5b6001810154611032908463ffffffff61266216565b6001820155600a5461104a908463ffffffff61266216565b600a5560095460408051635ae2fb3960e11b8152336004820152602481018690526044810185905290516001600160a01b039092169163b5c5f672916064808201926020929091908290030181600087803b1580156110a857600080fd5b505af11580156110bc573d6000803e3d6000fd5b505050506040513d60208110156110d257600080fd5b505161110f5760405162461bcd60e51b815260040180806020018281038252603d815260200180612b06603d913960400191505060405180910390fd5b60408051848152905133917f667cb7a1818eacd2e3a421e734429ba9c4c7dec85e578e098b6d72cd2bfbf2f6919081900360200190a2505050565b60045481565b6000611167600154836126ed90919063ffffffff16565b61116f61090d565b101592915050565b336000908152600d60209081526040808320546001600160a01b03168352600c9091529020600101546111db5760405162461bcd60e51b8152600401808060200182810382526025815260200180612b436025913960400191505060405180910390fd5b6001600160a01b0384166112205760405162461bcd60e51b815260040180806020018281038252602e815260200180612ca2602e913960400191505060405180910390fd5b670de0b6b3a764000061125083611244600b54600a546126ed90919063ffffffff16565b9063ffffffff6126ed16565b111561128d5760405162461bcd60e51b8152600401808060200182810382526032815260200180612ed66032913960400191505060405180910390fd5b600b546112a0908363ffffffff6126ed16565b600b55336000818152600d60209081526040808320546008546004805484516323b872dd60e01b815291820197909752306024820152604481019690965291516001600160a01b039182169592909116936323b872dd93606480850194919392918390030190829087803b15801561131757600080fd5b505af115801561132b573d6000803e3d6000fd5b505050506040513d602081101561134157600080fd5b505161137e5760405162461bcd60e51b815260040180806020018281038252603f8152602001806129f4603f913960400191505060405180910390fd5b600854604080516323b872dd60e01b81526001600160a01b03888116600483015230602483015260448201889052915191909216916323b872dd9160648083019260209291908290030181600087803b1580156113da57600080fd5b505af11580156113ee573d6000803e3d6000fd5b505050506040513d602081101561140457600080fd5b50516114415760405162461bcd60e51b8152600401808060200182810382526036815260200180612b686036913960400191505060405180910390fd5b6000611499600161124461145361090d565b600e541561149157600e805461147090600163ffffffff61266216565b8154811061147a57fe5b90600052602060002090600b020160030154611494565b60005b612747565b90506114a36128b3565b604051806101800160405280846001600160a01b03168152602001886001600160a01b03168152602001868152602001838152602001600081526020016000815260200160001515815260200160001515815260200160001515815260200187815260200185815260200160008152509050600e819080600181540180825580915050906001820390600052602060002090600b02016000909192909190915060008201518160000160006101000a8154816001600160a01b0302191690836001600160a01b0316021790555060208201518160010160006101000a8154816001600160a01b0302191690836001600160a01b0316021790555060408201518160020155606082015181600301556080820151816004015560a0820151816005015560c08201518160060160006101000a81548160ff02191690831515021790555060e08201518160060160016101000a81548160ff0219169083151502179055506101008201518160060160026101000a81548160ff021916908315150217905550610120820151816007015561014082015181600801908051906020019061164e92919061292c565b50610160919091015160099091015550600e5460009061167590600163ffffffff61266216565b60408051828152602081018a905280820189905290519192506001600160a01b03808b16929087169133917f2d105ebbc222c190059b3979356e13469f6a29a350add74ac3bf4f22f16301d69181900360600190a45050505050505050565b336000908152600d60209081526040808320546001600160a01b03168352600c9091529020600101546117385760405162461bcd60e51b8152600401808060200182810382526025815260200180612b436025913960400191505060405180910390fd5b336000908152600d60209081526040808320546001600160a01b0316808452600c909252909120600e54841061179f5760405162461bcd60e51b815260040180806020018281038252602c815260200180612dd9602c913960400191505060405180910390fd5b6000600e85815481106117ae57fe5b90600052602060002090600b0201905060038460ff16106118005760405162461bcd60e51b81526004018080602001828103825260318152602001806130ef6031913960400191505060405180910390fd5b60008460ff16600281111561181157fe5b9050816003015461182061090d565b101561185d5760405162461bcd60e51b8152600401808060200182810382526032815260200180612fcf6032913960400191505060405180910390fd5b61186a8260030154611150565b156118a65760405162461bcd60e51b8152600401808060200182810382526037815260200180612cfd6037913960400191505060405180910390fd5b6001600160a01b0384166000908152600a8301602052604081205460ff1660028111156118cf57fe5b1461190b5760405162461bcd60e51b815260040180806020018281038252603e815260200180612f50603e913960400191505060405180910390fd5b600181600281111561191957fe5b14806119305750600281600281111561192e57fe5b145b61196b5760405162461bcd60e51b8152600401808060200182810382526032815260200180612c3f6032913960400191505060405180910390fd5b600682015462010000900460ff16156119b55760405162461bcd60e51b815260040180806020018281038252602e815260200180613001602e913960400191505060405180910390fd5b6001600160a01b0384166000908152600a830160205260409020805482919060ff191660018360028111156119e657fe5b021790555060018160028111156119f957fe5b1415611a4d5760018301546004830154611a189163ffffffff6126ed16565b60048301556003830154861115611a3157600383018690555b8160090154600a541115611a4857600a5460098301555b611a80565b6002816002811115611a5b57fe5b1415611a805760018301546005830154611a7a9163ffffffff6126ed16565b60058301555b6040805160ff8716815290516001600160a01b03861691339189917f29bf0061f2faa9daa482f061b116195432d435536d8af4ae6b3c5dd78223679b919081900360200190a4505050505050565b600e546000908210611b115760405162461bcd60e51b815260040180806020018281038252602d815260200180612cd0602d913960400191505060405180910390fd5b600e8281548110611b1e57fe5b60009182526020909120600b909102016006015460ff1692915050565b6009546001600160a01b031681565b60055481565b60005481565b6008546001600160a01b031681565b600f546001600160a01b031681565b600e548110611bb45760405162461bcd60e51b81526004018080602001828103825260278152602001806130926027913960400191505060405180910390fd5b6000600e8281548110611bc357fe5b60009182526020909120600b9091020160018101549091506001600160a01b03163314611c215760405162461bcd60e51b815260040180806020018281038252602c815260200180612bdd602c913960400191505060405180910390fd5b6003805490820154611c389163ffffffff6126ed16565b611c4061090d565b10611c7c5760405162461bcd60e51b8152600401808060200182810382526031815260200180612c716031913960400191505060405180910390fd5b600681015462010000900460ff1615611cc65760405162461bcd60e51b815260040180806020018281038252603b815260200180612a6f603b913960400191505060405180910390fd5b60078101805460009182905560068301805462ff000019166201000017905560085460018401546040805163a9059cbb60e01b81526001600160a01b0392831660048201526024810185905290519394919092169263a9059cbb926044808201936020939283900390910190829087803b158015611d4357600080fd5b505af1158015611d57573d6000803e3d6000fd5b505050506040513d6020811015611d6d57600080fd5b5051611daa5760405162461bcd60e51b815260040180806020018281038252603f815260200180612e97603f913960400191505060405180910390fd5b60408051338152905184917fa749dd3df92cae4d106b3eadf60c0dffd3698de09c67ce58ce6f5d02eb821313919081900360200190a2505050565b600e548110611e255760405162461bcd60e51b815260040180806020018281038252603181526020018061315d6031913960400191505060405180910390fd5b6000600e8281548110611e3457fe5b60009182526020909120600b90910201600681015490915060ff1615611e8b5760405162461bcd60e51b815260040180806020018281038252603d815260200180613120603d913960400191505060405180910390fd5b611eaa60025461124460015484600301546126ed90919063ffffffff16565b611eb261090d565b1015611eef5760405162461bcd60e51b815260040180806020018281038252603f815260200180612b9e603f913960400191505060405180910390fd5b811580611f2c5750600e611f0a83600163ffffffff61266216565b81548110611f1457fe5b600091825260209091206006600b90920201015460ff165b611f675760405162461bcd60e51b815260040180806020018281038252603d815260200180612e05603d913960400191505060405180910390fd5b60068101805460ff191660011790556002810154600b54611f8d9163ffffffff61266216565b600b55600580820154600483015460098401549254600a54929091119291611fba9163ffffffff61275e16565b1015611fc4575060005b808015611fdc5750600682015462010000900460ff16155b1561227c5760068201805461ff00191661010017905560018201546001600160a01b03166000908152600c602052604090206002015460ff16156120715760028201546001808401546001600160a01b03166000908152600c60205260409020015461204d9163ffffffff6126ed16565b6001808401546001600160a01b03166000908152600c602052604090200155612198565b60018201546001600160a01b039081166000908152600d60209081526040808320549093168252600c9052206002015460ff16156120fb5760018201546001600160a01b039081166000908152600d602090815260408083205490931680835283832080546001600160a01b03199081168317909155600c90925292909120805490911690911790555b60408051608081018252600180850180546001600160a01b039081168085526002808901546020808801918252878901878152600060608a01818152958152600c83528a812099518a549088166001600160a01b0319918216178b559351988a019890985551928801805493151560ff19909416939093179092559151600390960195909555915416808352600d90935292902080549092161790555b6002820154600a546121af9163ffffffff6126ed16565b600a5560085460095460078401546040805163a9059cbb60e01b81526001600160a01b039384166004820152602481019290925251919092169163a9059cbb9160448083019260209291908290030181600087803b15801561221057600080fd5b505af1158015612224573d6000803e3d6000fd5b505050506040513d602081101561223a57600080fd5b50516122775760405162461bcd60e51b815260040180806020018281038252603d81526020018061302f603d913960400191505060405180910390fd5b612343565b600854600183015460078401546040805163a9059cbb60e01b81526001600160a01b039384166004820152602481019290925251919092169163a9059cbb9160448083019260209291908290030181600087803b1580156122dc57600080fd5b505af11580156122f0573d6000803e3d6000fd5b505050506040513d602081101561230657600080fd5b50516123435760405162461bcd60e51b815260040180806020018281038252603c815260200180612a33603c913960400191505060405180910390fd5b6008546006546040805163a9059cbb60e01b81523360048201526024810192909252516001600160a01b039092169163a9059cbb916044808201926020929091908290030181600087803b15801561239a57600080fd5b505af11580156123ae573d6000803e3d6000fd5b505050506040513d60208110156123c457600080fd5b50516124015760405162461bcd60e51b8152600401808060200182810382526048815260200180612f086048913960600191505060405180910390fd5b60085482546006546004546001600160a01b039384169363a9059cbb931691612430919063ffffffff61266216565b6040518363ffffffff1660e01b815260040180836001600160a01b03166001600160a01b0316815260200182815260200192505050602060405180830381600087803b15801561247f57600080fd5b505af1158015612493573d6000803e3d6000fd5b505050506040513d60208110156124a957600080fd5b50516124e65760405162461bcd60e51b8152600401808060200182810382526047815260200180612d346047913960600191505060405180910390fd5b815460018301546007840154600285015460408051928352602083019190915284151582820152516001600160a01b0393841693929092169186917f3f6fc303a82367bb4947244ba21c569a5ed2e870610f1a693366142309d7cbea919081900360600190a4505050565b336000908152600d60209081526040808320546001600160a01b03168352600c9091529020600101546125b55760405162461bcd60e51b8152600401808060200182810382526025815260200180612b436025913960400191505060405180910390fd5b6125c23360008989611177565b600e546000906125d990600163ffffffff61266216565b90506125e36129aa565b506040805160a081018252878152602080820188815282840188815260608401889052608084018790526000868152601084529490942083518155905160018201559251805192938493909261264092600285019291019061292c565b5060608201516003820155608090910151600490910155505050505050505050565b60006126a483836040518060400160405280601e81526020017f536166654d6174683a207375627472616374696f6e206f766572666c6f7700008152506127b7565b9392505050565b60006126a483836040518060400160405280601a81526020017f536166654d6174683a206469766973696f6e206279207a65726f00000000000081525061284e565b6000828201838110156126a4576040805162461bcd60e51b815260206004820152601b60248201527f536166654d6174683a206164646974696f6e206f766572666c6f770000000000604482015290519081900360640190fd5b60008183101561275757816126a4565b5090919050565b60008261276d57506000610907565b8282028284828161277a57fe5b04146126a45760405162461bcd60e51b8152600401808060200182810382526021815260200180612e426021913960400191505060405180910390fd5b600081848411156128465760405162461bcd60e51b81526004018080602001828103825283818151815260200191508051906020019080838360005b8381101561280b5781810151838201526020016127f3565b50505050905090810190601f1680156128385780820380516001836020036101000a031916815260200191505b509250505060405180910390fd5b505050900390565b6000818361289d5760405162461bcd60e51b815260206004820181815283516024840152835190928392604490910191908501908083836000831561280b5781810151838201526020016127f3565b5060008385816128a957fe5b0495945050505050565b60405180610180016040528060006001600160a01b0316815260200160006001600160a01b03168152602001600081526020016000815260200160008152602001600081526020016000151581526020016000151581526020016000151581526020016000815260200160608152602001600081525090565b828054600181600116156101000203166002900490600052602060002090601f016020900481019282601f1061296d57805160ff191683800117855561299a565b8280016001018555821561299a579182015b8281111561299a57825182559160200191906001019061297f565b506129a69291506129d9565b5090565b6040518060a0016040528060008152602001600081526020016060815260200160008152602001600081525090565b61093991905b808211156129a657600081556001016129df56fe4d6f6c6f63683a3a7375626d697450726f706f73616c202d2070726f706f73616c206465706f73697420746f6b656e207472616e73666572206661696c65644d6f6c6f63683a3a70726f6365737350726f706f73616c202d206661696c696e6720766f746520746f6b656e207472616e73666572206661696c65644d6f6c6f63683a3a61626f7274202d2070726f706f73616c206d757374206e6f74206861766520616c7265616479206265656e2061626f727465644d6f6c6f63683a3a75706461746544656c65676174654b6579202d2063616e74206f7665727772697465206578697374696e67206d656d626572734d6f6c6f63683a3a6f6e6c794d656d626572202d206e6f742061206d656d6265724d6f6c6f63683a3a7261676571756974202d207769746864726177616c206f6620746f6b656e732066726f6d206775696c6442616e6b206661696c65644d6f6c6f63683a3a6f6e6c7944656c6567617465202d206e6f7420612064656c65676174654d6f6c6f63683a3a7375626d697450726f706f73616c202d207472696275746520746f6b656e207472616e73666572206661696c65644d6f6c6f63683a3a70726f6365737350726f706f73616c202d2070726f706f73616c206973206e6f7420726561647920746f2062652070726f6365737365644d6f6c6f63683a3a61626f7274202d206d73672e73656e646572206d757374206265206170706c6963616e744d6f6c6f63683a3a6765744d656d62657250726f706f73616c566f7465202d2070726f706f73616c20646f65736e27742065786973744d6f6c6f63683a3a7375626d6974566f7465202d20766f7465206d7573742062652065697468657220596573206f72204e6f4d6f6c6f63683a3a61626f7274202d2061626f72742077696e646f77206d757374206e6f742068617665207061737365644d6f6c6f63683a3a7375626d697450726f706f73616c202d206170706c6963616e742063616e6e6f7420626520304d6f6c6f63683a3a63616e5261676571756974202d2070726f706f73616c20646f6573206e6f742065786973744d6f6c6f63683a3a7375626d6974566f7465202d2070726f706f73616c20766f74696e6720706572696f642068617320657870697265644d6f6c6f63683a3a70726f6365737350726f706f73616c202d206661696c656420746f2072657475726e2070726f706f73616c206465706f73697420746f2070726f706f7365724d6f6c6f63683a3a7261676571756974202d2063616e7420726167657175697420756e74696c206869676865737420696e6465782070726f706f73616c206d656d62657220766f74656420594553206f6e2069732070726f6365737365644d6f6c6f63683a3a7375626d6974566f7465202d2070726f706f73616c20646f6573206e6f742065786973744d6f6c6f63683a3a70726f6365737350726f706f73616c202d2070726576696f75732070726f706f73616c206d7573742062652070726f636573736564536166654d6174683a206d756c7469706c69636174696f6e206f766572666c6f774d6f6c6f63683a3a6765744d656d62657250726f706f73616c566f7465202d206d656d62657220646f65736e27742065786973744d6f6c6f63683a3a70726f6365737350726f706f73616c202d206661696c656420746f2072657475726e207472696275746520746f206170706c6963616e744d6f6c6f63683a3a7375626d697450726f706f73616c202d20746f6f206d616e7920736861726573207265717565737465644d6f6c6f63683a3a70726f6365737350726f706f73616c202d206661696c656420746f2073656e642070726f63657373696e672072657761726420746f206d73672e73656e6465724d6f6c6f63683a3a7375626d6974566f7465202d206d656d6265722068617320616c726561647920766f746564206f6e20746869732070726f706f73616c4d6f6c6f63683a3a75706461746544656c65676174654b6579202d2063616e74206f7665727772697465206578697374696e672064656c6567617465206b6579734d6f6c6f63683a3a7375626d6974566f7465202d20766f74696e6720706572696f6420686173206e6f7420737461727465644d6f6c6f63683a3a7375626d6974566f7465202d2070726f706f73616c20686173206265656e2061626f727465644d6f6c6f63683a3a70726f6365737350726f706f73616c202d20746f6b656e207472616e7366657220746f206775696c642062616e6b206661696c65644d6f6c6f63683a3a7261676571756974202d20696e73756666696369656e74207368617265734d6f6c6f63683a3a61626f7274202d2070726f706f73616c20646f6573206e6f742065786973744d6f6c6f63683a3a75706461746544656c65676174654b6579202d206e657744656c65676174654b65792063616e6e6f7420626520304d6f6c6f63683a3a7375626d6974566f7465202d2075696e74566f7465206d757374206265206c657373207468616e20334d6f6c6f63683a3a70726f6365737350726f706f73616c202d2070726f706f73616c2068617320616c7265616479206265656e2070726f6365737365644d6f6c6f63683a3a70726f6365737350726f706f73616c202d2070726f706f73616c20646f6573206e6f74206578697374a265627a7a72305820fd6a32f08a6dc37b61966af5c0ff013191195d6c9a6cb6b27611e12f1025023b64736f6c634300050a0032608060405234801561001057600080fd5b506040516108613803806108618339818101604052602081101561003357600080fd5b50516100466001600160e01b036100b316565b600080546001600160a01b0319166001600160a01b03928316178082556040519216917f8be0079c531659141344cd1fd0a4f28419497f9722a3daafe3b4186f6b6457e0908290a3600180546001600160a01b0319166001600160a01b03929092169190911790556100b7565b3390565b61079b806100c66000396000f3fe6080604052600436106100705760003560e01c8063b5c5f6721161004e578063b5c5f672146100e1578063bab4625914610120578063cde4efa914610135578063f2fde38b1461014a57610070565b8063715018a6146100725780638da5cb5b146100875780638f32d59b146100b8575b005b34801561007e57600080fd5b5061007061017d565b34801561009357600080fd5b5061009c610220565b604080516001600160a01b039092168252519081900360200190f35b3480156100c457600080fd5b506100cd61022f565b604080519115158252519081900360200190f35b3480156100ed57600080fd5b506100cd6004803603606081101561010457600080fd5b506001600160a01b038135169060208101359060400135610253565b34801561012c57600080fd5b5061009c610418565b34801561014157600080fd5b506100cd610427565b34801561015657600080fd5b506100706004803603602081101561016d57600080fd5b50356001600160a01b03166104d0565b61018561022f565b6101d6576040805162461bcd60e51b815260206004820181905260248201527f4f776e61626c653a2063616c6c6572206973206e6f7420746865206f776e6572604482015290519081900360640190fd5b600080546040516001600160a01b03909116907f8be0079c531659141344cd1fd0a4f28419497f9722a3daafe3b4186f6b6457e0908390a3600080546001600160a01b0319169055565b6000546001600160a01b031690565b600080546001600160a01b0316610244610535565b6001600160a01b031614905090565b600061025d61022f565b6102ae576040805162461bcd60e51b815260206004820181905260248201527f4f776e61626c653a2063616c6c6572206973206e6f7420746865206f776e6572604482015290519081900360640190fd5b600154604080516370a0823160e01b8152306004820152905160009261034c9286926103409289926001600160a01b03909116916370a0823191602480820192602092909190829003018186803b15801561030857600080fd5b505afa15801561031c573d6000803e3d6000fd5b505050506040513d602081101561033257600080fd5b50519063ffffffff61053916565b9063ffffffff61059b16565b6040805182815290519192506001600160a01b038716917f7fcf532c15f0a6db0bd6d0e038bea71d30d808c7d98cb3bf7268a95bf5081b659181900360200190a26001546040805163a9059cbb60e01b81526001600160a01b038881166004830152602482018590529151919092169163a9059cbb9160448083019260209291908290030181600087803b1580156103e357600080fd5b505af11580156103f7573d6000803e3d6000fd5b505050506040513d602081101561040d57600080fd5b505195945050505050565b6001546001600160a01b031681565b60015460405160009182916001600160a01b03909116903031908381818185875af1925050503d8060008114610479576040519150601f19603f3d011682016040523d82523d6000602084013e61047e565b606091505b50509050806104cb576040805162461bcd60e51b8152602060048201526014602482015273086dedceccae4e6d2dedc40ccc2d2d8cac84074560631b604482015290519081900360640190fd5b905090565b6104d861022f565b610529576040805162461bcd60e51b815260206004820181905260248201527f4f776e61626c653a2063616c6c6572206973206e6f7420746865206f776e6572604482015290519081900360640190fd5b610532816105dd565b50565b3390565b60008261054857506000610595565b8282028284828161055557fe5b04146105925760405162461bcd60e51b81526004018080602001828103825260218152602001806107466021913960400191505060405180910390fd5b90505b92915050565b600061059283836040518060400160405280601a81526020017f536166654d6174683a206469766973696f6e206279207a65726f00000000000081525061067d565b6001600160a01b0381166106225760405162461bcd60e51b81526004018080602001828103825260268152602001806107206026913960400191505060405180910390fd5b600080546040516001600160a01b03808516939216917f8be0079c531659141344cd1fd0a4f28419497f9722a3daafe3b4186f6b6457e091a3600080546001600160a01b0319166001600160a01b0392909216919091179055565b600081836107095760405162461bcd60e51b81526004018080602001828103825283818151815260200191508051906020019080838360005b838110156106ce5781810151838201526020016106b6565b50505050905090810190601f1680156106fb5780820380516001836020036101000a031916815260200191505b509250505060405180910390fd5b50600083858161071557fe5b049594505050505056fe4f776e61626c653a206e6577206f776e657220697320746865207a65726f2061646472657373536166654d6174683a206d756c7469706c69636174696f6e206f766572666c6f77a265627a7a72305820e69b497a11e1fda1f98c3190901f506738c459fba1f52890b5713539eecf845264736f6c634300050a00324d6f6c6f63683a3a636f6e7374727563746f72202d205f61626f727457696e646f772063616e6e6f7420626520304d6f6c6f63683a3a636f6e7374727563746f72202d2073756d6d6f6e65722063616e6e6f7420626520304d6f6c6f63683a3a636f6e7374727563746f72202d205f766f74696e67506572696f644c656e6774682065786365656473206c696d69744d6f6c6f63683a3a636f6e7374727563746f72202d205f70726f706f73616c4465706f7369742063616e6e6f7420626520736d616c6c6572207468616e205f70726f63657373696e675265776172644d6f6c6f63683a3a636f6e7374727563746f72202d205f64696c7574696f6e426f756e642065786365656473206c696d69744d6f6c6f63683a3a636f6e7374727563746f72202d205f61626f727457696e646f77206d75737420626520736d616c6c6572207468616e206f7220657175616c20746f205f766f74696e67506572696f644c656e6774684d6f6c6f63683a3a636f6e7374727563746f72202d205f6772616365506572696f644c656e6774682065786365656473206c696d69744d6f6c6f63683a3a636f6e7374727563746f72202d205f766f74696e67506572696f644c656e6774682063616e6e6f7420626520304d6f6c6f63683a3a636f6e7374727563746f72202d205f706572696f644475726174696f6e2063616e6e6f7420626520304d6f6c6f63683a3a636f6e7374727563746f72202d205f617070726f766564546f6b656e2063616e6e6f7420626520304d6f6c6f63683a3a636f6e7374727563746f72202d205f64696c7574696f6e426f756e642063616e6e6f742062652030",
  "source": "pragma solidity 0.5.10;\n\n\nimport \"@openzeppelin/contracts/token/ERC20/IERC20.sol\";\nimport \"@openzeppelin/contracts/math/SafeMath.sol\";\nimport \"./GuildBank.sol\";\nimport \"./ISelfServeEditionCuration.sol\";\n\nimport \"./mock/KOSelfServiceMock.sol\";\n\n// This only extends the Moloch v1 with extra functions, events, etc\n\ncontract MolochV1KOD {\n    using SafeMath for uint256;\n\n    /***************\n    GLOBAL CONSTANTS\n    ***************/\n    uint256 public periodDuration; // default = 17280 = 4.8 hours in seconds (5 periods per day)\n    uint256 public votingPeriodLength; // default = 35 periods (7 days)\n    uint256 public gracePeriodLength; // default = 35 periods (7 days)\n    uint256 public abortWindow; // default = 5 periods (1 day)\n    uint256 public proposalDeposit; // default = 10 ETH (~$1,000 worth of ETH at contract deployment)\n    uint256 public dilutionBound; // default = 3 - maximum multiplier a YES voter will be obligated to pay in case of mass ragequit\n    uint256 public processingReward; // default = 0.1 - amount of ETH to give to whoever processes a proposal\n    uint256 public summoningTime; // needed to determine the current period\n\n    IERC20 public approvedToken; // approved token contract reference; default = wETH\n    GuildBank public guildBank; // guild bank contract reference\n\n    // HARD-CODED LIMITS\n    // These numbers are quite arbitrary; they are small enough to avoid overflows when doing calculations\n    // with periods or shares, yet big enough to not limit reasonable use cases.\n    uint256 constant MAX_VOTING_PERIOD_LENGTH = 10 ** 18; // maximum length of voting period\n    uint256 constant MAX_GRACE_PERIOD_LENGTH = 10 ** 18; // maximum length of grace period\n    uint256 constant MAX_DILUTION_BOUND = 10 ** 18; // maximum dilution bound\n    uint256 constant MAX_NUMBER_OF_SHARES = 10 ** 18; // maximum number of shares that can be minted\n\n    /***************\n    EVENTS\n    ***************/\n    event SubmitProposal(uint256 proposalIndex, address indexed delegateKey, address indexed memberAddress, address indexed applicant, uint256 tokenTribute, uint256 sharesRequested);\n    event SubmitVote(uint256 indexed proposalIndex, address indexed delegateKey, address indexed memberAddress, uint8 uintVote);\n    event ProcessProposal(uint256 indexed proposalIndex, address indexed applicant, address indexed memberAddress, uint256 tokenTribute, uint256 sharesRequested, bool didPass);\n    event Ragequit(address indexed memberAddress, uint256 sharesToBurn);\n    event Abort(uint256 indexed proposalIndex, address applicantAddress);\n    event UpdateDelegateKey(address indexed memberAddress, address newDelegateKey);\n    event SummonComplete(address indexed summoner, uint256 shares);\n\n    /******************\n    INTERNAL ACCOUNTING\n    ******************/\n    uint256 public totalShares = 0; // total shares across all members\n    uint256 public totalSharesRequested = 0; // total shares that have been requested in unprocessed proposals\n\n    enum Vote {\n        Null, // default value, counted as abstention\n        Yes,\n        No\n    }\n\n    struct Member {\n        address delegateKey; // the key responsible for submitting proposals and voting - defaults to member address unless updated\n        uint256 shares; // the # of shares assigned to this member\n        bool exists; // always true once a member has been created\n        uint256 highestIndexYesVote; // highest proposal index # on which the member voted YES\n    }\n\n    struct Proposal {\n        address proposer; // the member who submitted the proposal\n        address applicant; // the applicant who wishes to become a member - this key will be used for withdrawals\n        uint256 sharesRequested; // the # of shares the applicant is requesting\n        uint256 startingPeriod; // the period in which voting can start for this proposal\n        uint256 yesVotes; // the total number of YES votes for this proposal\n        uint256 noVotes; // the total number of NO votes for this proposal\n        bool processed; // true only if the proposal has been processed\n        bool didPass; // true only if the proposal passed\n        bool aborted; // true only if applicant calls \"abort\" fn before end of voting period\n        uint256 tokenTribute; // amount of tokens offered as tribute\n        string details; // proposal details - could be IPFS hash, plaintext, or JSON\n        uint256 maxTotalSharesAtYesVote; // the maximum # of total shares encountered at a yes vote on this proposal\n        mapping(address => Vote) votesByMember; // the votes on this proposal by each member\n    }\n\n    mapping(address => Member) public members;\n    mapping(address => address) public memberAddressByDelegateKey;\n    Proposal[] public proposalQueue;\n\n    /********\n    MODIFIERS\n    ********/\n    modifier onlyMember {\n        require(members[msg.sender].shares > 0, \"Moloch::onlyMember - not a member\");\n        _;\n    }\n\n    modifier onlyDelegate {\n        require(members[memberAddressByDelegateKey[msg.sender]].shares > 0, \"Moloch::onlyDelegate - not a delegate\");\n        _;\n    }\n\n    /********\n    FUNCTIONS\n    ********/\n    constructor(\n        address summoner,\n        address _approvedToken,\n        uint256 _periodDuration,\n        uint256 _votingPeriodLength,\n        uint256 _gracePeriodLength,\n        uint256 _abortWindow,\n        uint256 _proposalDeposit,\n        uint256 _dilutionBound,\n        uint256 _processingReward,\n        ISelfServeEditionCuration _selfServeEditionCuration // extra NFT creator contract address\n    ) public {\n        require(summoner != address(0), \"Moloch::constructor - summoner cannot be 0\");\n        require(_approvedToken != address(0), \"Moloch::constructor - _approvedToken cannot be 0\");\n        require(_periodDuration > 0, \"Moloch::constructor - _periodDuration cannot be 0\");\n        require(_votingPeriodLength > 0, \"Moloch::constructor - _votingPeriodLength cannot be 0\");\n        require(_votingPeriodLength <= MAX_VOTING_PERIOD_LENGTH, \"Moloch::constructor - _votingPeriodLength exceeds limit\");\n        require(_gracePeriodLength <= MAX_GRACE_PERIOD_LENGTH, \"Moloch::constructor - _gracePeriodLength exceeds limit\");\n        require(_abortWindow > 0, \"Moloch::constructor - _abortWindow cannot be 0\");\n        require(_abortWindow <= _votingPeriodLength, \"Moloch::constructor - _abortWindow must be smaller than or equal to _votingPeriodLength\");\n        require(_dilutionBound > 0, \"Moloch::constructor - _dilutionBound cannot be 0\");\n        require(_dilutionBound <= MAX_DILUTION_BOUND, \"Moloch::constructor - _dilutionBound exceeds limit\");\n        require(_proposalDeposit >= _processingReward, \"Moloch::constructor - _proposalDeposit cannot be smaller than _processingReward\");\n\n        approvedToken = IERC20(_approvedToken);\n\n        guildBank = new GuildBank(_approvedToken);\n\n        periodDuration = _periodDuration;\n        votingPeriodLength = _votingPeriodLength;\n        gracePeriodLength = _gracePeriodLength;\n        abortWindow = _abortWindow;\n        proposalDeposit = _proposalDeposit;\n        dilutionBound = _dilutionBound;\n        processingReward = _processingReward;\n\n        summoningTime = now;\n\n        members[summoner] = Member(summoner, 1, true, 0);\n        memberAddressByDelegateKey[summoner] = summoner;\n        totalShares = 1;\n\n        emit SummonComplete(summoner, 1);\n\n        selfServeEditionCuration = _selfServeEditionCuration;\n    }\n\n    /*****************\n    PROPOSAL FUNCTIONS\n    *****************/\n\n    function submitProposal(\n        address applicant,\n        uint256 tokenTribute,\n        uint256 sharesRequested,\n        string memory details\n    )\n    public\n    onlyDelegate\n    {\n        require(applicant != address(0), \"Moloch::submitProposal - applicant cannot be 0\");\n\n        // Make sure we won't run into overflows when doing calculations with shares.\n        // Note that totalShares + totalSharesRequested + sharesRequested is an upper bound\n        // on the number of shares that can exist until this proposal has been processed.\n        require(totalShares.add(totalSharesRequested).add(sharesRequested) <= MAX_NUMBER_OF_SHARES, \"Moloch::submitProposal - too many shares requested\");\n\n        totalSharesRequested = totalSharesRequested.add(sharesRequested);\n\n        address memberAddress = memberAddressByDelegateKey[msg.sender];\n\n        // collect proposal deposit from proposer and store it in the Moloch until the proposal is processed\n        require(approvedToken.transferFrom(msg.sender, address(this), proposalDeposit), \"Moloch::submitProposal - proposal deposit token transfer failed\");\n\n        // collect tribute from applicant and store it in the Moloch until the proposal is processed\n        require(approvedToken.transferFrom(applicant, address(this), tokenTribute), \"Moloch::submitProposal - tribute token transfer failed\");\n\n        // compute startingPeriod for proposal\n        uint256 startingPeriod = max(\n            getCurrentPeriod(),\n            proposalQueue.length == 0 ? 0 : proposalQueue[proposalQueue.length.sub(1)].startingPeriod\n        ).add(1);\n\n        // create proposal ...\n        Proposal memory proposal = Proposal({\n            proposer : memberAddress,\n            applicant : applicant,\n            sharesRequested : sharesRequested,\n            startingPeriod : startingPeriod,\n            yesVotes : 0,\n            noVotes : 0,\n            processed : false,\n            didPass : false,\n            aborted : false,\n            tokenTribute : tokenTribute,\n            details : details,\n            maxTotalSharesAtYesVote : 0\n            });\n\n        // ... and append it to the queue\n        proposalQueue.push(proposal);\n\n        uint256 proposalIndex = proposalQueue.length.sub(1);\n        emit SubmitProposal(proposalIndex, msg.sender, memberAddress, applicant, tokenTribute, sharesRequested);\n    }\n\n    function submitVote(uint256 proposalIndex, uint8 uintVote) public onlyDelegate {\n        address memberAddress = memberAddressByDelegateKey[msg.sender];\n        Member storage member = members[memberAddress];\n\n        require(proposalIndex < proposalQueue.length, \"Moloch::submitVote - proposal does not exist\");\n        Proposal storage proposal = proposalQueue[proposalIndex];\n\n        require(uintVote < 3, \"Moloch::submitVote - uintVote must be less than 3\");\n        Vote vote = Vote(uintVote);\n\n        require(getCurrentPeriod() >= proposal.startingPeriod, \"Moloch::submitVote - voting period has not started\");\n        require(!hasVotingPeriodExpired(proposal.startingPeriod), \"Moloch::submitVote - proposal voting period has expired\");\n        require(proposal.votesByMember[memberAddress] == Vote.Null, \"Moloch::submitVote - member has already voted on this proposal\");\n        require(vote == Vote.Yes || vote == Vote.No, \"Moloch::submitVote - vote must be either Yes or No\");\n        require(!proposal.aborted, \"Moloch::submitVote - proposal has been aborted\");\n\n        // store vote\n        proposal.votesByMember[memberAddress] = vote;\n\n        // count vote\n        if (vote == Vote.Yes) {\n            proposal.yesVotes = proposal.yesVotes.add(member.shares);\n\n            // set highest index (latest) yes vote - must be processed for member to ragequit\n            if (proposalIndex > member.highestIndexYesVote) {\n                member.highestIndexYesVote = proposalIndex;\n            }\n\n            // set maximum of total shares encountered at a yes vote - used to bound dilution for yes voters\n            if (totalShares > proposal.maxTotalSharesAtYesVote) {\n                proposal.maxTotalSharesAtYesVote = totalShares;\n            }\n\n        } else if (vote == Vote.No) {\n            proposal.noVotes = proposal.noVotes.add(member.shares);\n        }\n\n        emit SubmitVote(proposalIndex, msg.sender, memberAddress, uintVote);\n    }\n\n    function processProposal(uint256 proposalIndex) public {\n        require(proposalIndex < proposalQueue.length, \"Moloch::processProposal - proposal does not exist\");\n        Proposal storage proposal = proposalQueue[proposalIndex];\n\n        require(proposal.processed == false, \"Moloch::processProposal - proposal has already been processed\");\n        require(getCurrentPeriod() >= proposal.startingPeriod.add(votingPeriodLength).add(gracePeriodLength), \"Moloch::processProposal - proposal is not ready to be processed\");\n        require(proposalIndex == 0 || proposalQueue[proposalIndex.sub(1)].processed, \"Moloch::processProposal - previous proposal must be processed\");\n\n        proposal.processed = true;\n        totalSharesRequested = totalSharesRequested.sub(proposal.sharesRequested);\n\n        bool didPass = proposal.yesVotes > proposal.noVotes;\n\n        // Make the proposal fail if the dilutionBound is exceeded\n        if (totalShares.mul(dilutionBound) < proposal.maxTotalSharesAtYesVote) {\n            didPass = false;\n        }\n\n        // PROPOSAL PASSED\n        if (didPass && !proposal.aborted) {\n\n            proposal.didPass = true;\n\n            // if the applicant is already a member, add to their existing shares\n            if (members[proposal.applicant].exists) {\n                members[proposal.applicant].shares = members[proposal.applicant].shares.add(proposal.sharesRequested);\n\n                // the applicant is a new member, create a new record for them\n            } else {\n                // if the applicant address is already taken by a member's delegateKey, reset it to their member address\n                if (members[memberAddressByDelegateKey[proposal.applicant]].exists) {\n                    address memberToOverride = memberAddressByDelegateKey[proposal.applicant];\n                    memberAddressByDelegateKey[memberToOverride] = memberToOverride;\n                    members[memberToOverride].delegateKey = memberToOverride;\n                }\n\n                // use applicant address as delegateKey by default\n                members[proposal.applicant] = Member(proposal.applicant, proposal.sharesRequested, true, 0);\n                memberAddressByDelegateKey[proposal.applicant] = proposal.applicant;\n            }\n\n            // mint new shares\n            totalShares = totalShares.add(proposal.sharesRequested);\n\n            // transfer tokens to guild bank\n            require(\n                approvedToken.transfer(address(guildBank), proposal.tokenTribute),\n                \"Moloch::processProposal - token transfer to guild bank failed\"\n            );\n\n            // PROPOSAL FAILED OR ABORTED\n        } else {\n            // return all tokens to the applicant\n            require(\n                approvedToken.transfer(proposal.applicant, proposal.tokenTribute),\n                \"Moloch::processProposal - failing vote token transfer failed\"\n            );\n        }\n\n        // send msg.sender the processingReward\n        require(\n            approvedToken.transfer(msg.sender, processingReward),\n            \"Moloch::processProposal - failed to send processing reward to msg.sender\"\n        );\n\n        // return deposit to proposer (subtract processing reward)\n        require(\n            approvedToken.transfer(proposal.proposer, proposalDeposit.sub(processingReward)),\n            \"Moloch::processProposal - failed to return proposal deposit to proposer\"\n        );\n\n        emit ProcessProposal(\n            proposalIndex,\n            proposal.applicant,\n            proposal.proposer,\n            proposal.tokenTribute,\n            proposal.sharesRequested,\n            didPass\n        );\n    }\n\n    function ragequit(uint256 sharesToBurn) public onlyMember {\n        uint256 initialTotalShares = totalShares;\n\n        Member storage member = members[msg.sender];\n\n        require(member.shares >= sharesToBurn, \"Moloch::ragequit - insufficient shares\");\n\n        require(canRagequit(member.highestIndexYesVote), \"Moloch::ragequit - cant ragequit until highest index proposal member voted YES on is processed\");\n\n        // burn shares\n        member.shares = member.shares.sub(sharesToBurn);\n        totalShares = totalShares.sub(sharesToBurn);\n\n        // instruct guildBank to transfer fair share of tokens to the ragequitter\n        require(\n            guildBank.withdraw(msg.sender, sharesToBurn, initialTotalShares),\n            \"Moloch::ragequit - withdrawal of tokens from guildBank failed\"\n        );\n\n        emit Ragequit(msg.sender, sharesToBurn);\n    }\n\n    function abort(uint256 proposalIndex) public {\n        require(proposalIndex < proposalQueue.length, \"Moloch::abort - proposal does not exist\");\n        Proposal storage proposal = proposalQueue[proposalIndex];\n\n        require(msg.sender == proposal.applicant, \"Moloch::abort - msg.sender must be applicant\");\n        require(getCurrentPeriod() < proposal.startingPeriod.add(abortWindow), \"Moloch::abort - abort window must not have passed\");\n        require(!proposal.aborted, \"Moloch::abort - proposal must not have already been aborted\");\n\n        uint256 tokensToAbort = proposal.tokenTribute;\n        proposal.tokenTribute = 0;\n        proposal.aborted = true;\n\n        // return all tokens to the applicant\n        require(\n            approvedToken.transfer(proposal.applicant, tokensToAbort),\n            \"Moloch::processProposal - failed to return tribute to applicant\"\n        );\n\n        emit Abort(proposalIndex, msg.sender);\n    }\n\n    function updateDelegateKey(address newDelegateKey) public onlyMember {\n        require(newDelegateKey != address(0), \"Moloch::updateDelegateKey - newDelegateKey cannot be 0\");\n\n        // skip checks if member is setting the delegate key to their member address\n        if (newDelegateKey != msg.sender) {\n            require(!members[newDelegateKey].exists, \"Moloch::updateDelegateKey - cant overwrite existing members\");\n            require(!members[memberAddressByDelegateKey[newDelegateKey]].exists, \"Moloch::updateDelegateKey - cant overwrite existing delegate keys\");\n        }\n\n        Member storage member = members[msg.sender];\n        memberAddressByDelegateKey[member.delegateKey] = address(0);\n        memberAddressByDelegateKey[newDelegateKey] = msg.sender;\n        member.delegateKey = newDelegateKey;\n\n        emit UpdateDelegateKey(msg.sender, newDelegateKey);\n    }\n\n    /***************\n    GETTER FUNCTIONS\n    ***************/\n\n    function max(uint256 x, uint256 y) internal pure returns (uint256) {\n        return x >= y ? x : y;\n    }\n\n    function getCurrentPeriod() public view returns (uint256) {\n        return now.sub(summoningTime).div(periodDuration);\n    }\n\n    function getProposalQueueLength() public view returns (uint256) {\n        return proposalQueue.length;\n    }\n\n    // can only ragequit if the latest proposal you voted YES on has been processed\n    function canRagequit(uint256 highestIndexYesVote) public view returns (bool) {\n        require(highestIndexYesVote < proposalQueue.length, \"Moloch::canRagequit - proposal does not exist\");\n        return proposalQueue[highestIndexYesVote].processed;\n    }\n\n    function hasVotingPeriodExpired(uint256 startingPeriod) public view returns (bool) {\n        return getCurrentPeriod() >= startingPeriod.add(votingPeriodLength);\n    }\n\n    function getMemberProposalVote(address memberAddress, uint256 proposalIndex) public view returns (Vote) {\n        require(members[memberAddress].exists, \"Moloch::getMemberProposalVote - member doesn't exist\");\n        require(proposalIndex < proposalQueue.length, \"Moloch::getMemberProposalVote - proposal doesn't exist\");\n        return proposalQueue[proposalIndex].votesByMember[memberAddress];\n    }\n\n    // Non-moloch v1 code below\n\n    ISelfServeEditionCuration public selfServeEditionCuration;\n\n    struct NFTProposal {\n        uint256 totalAvailable;\n        uint256 priceInWei;\n        string tokenUri;\n        uint256 daoSplit;\n        uint256 proposingArtistSplit;\n    }\n\n    mapping(uint256 => NFTProposal) public nftProposals;\n\n    function submitNFTProposal(\n        uint256 sharesRequested,\n        string memory details,\n        uint256 totalAvailable,\n        uint256 priceInWei,\n        string memory tokenUri,\n        uint256 daoSplit,\n        uint256 proposingArtistSplit\n    )\n    public\n    onlyDelegate {\n        // get the standard proposal stuff in the moloch\n        submitProposal(msg.sender, 0, sharesRequested, details);\n        uint256 proposalIndex = proposalQueue.length.sub(1);\n\n        NFTProposal memory nftProposal = NFTProposal({\n            totalAvailable : totalAvailable,\n            priceInWei : priceInWei,\n            tokenUri : tokenUri,\n            daoSplit : daoSplit,\n            proposingArtistSplit : proposingArtistSplit\n            });\n\n        nftProposals[proposalIndex] = nftProposal;\n    }\n\n    function processNFTProposal(uint256 proposalIndex) public {\n\n        // let moloch do it's thang\n        processProposal(proposalIndex);\n\n        Proposal storage proposal = proposalQueue[proposalIndex];\n        NFTProposal storage nftProposal = nftProposals[proposalIndex];\n\n        if (proposal.didPass) {\n            // create NFT in KO via self serve contract\n            selfServeEditionCuration.createEditionFor(\n                address(guildBank),\n                true, //bool _enableAuction,\n                proposal.proposer, //address _optionalSplitAddress,\n                nftProposal.proposingArtistSplit, //uint256 _optionalSplitRate,\n                nftProposal.totalAvailable, //uint256 _totalAvailable,\n                nftProposal.priceInWei, //uint256 _priceInWei,\n                0, //uint256 _startDate,\n                0, //uint256 _endDate,\n                nftProposal.daoSplit, //uint256 _artistCommission,\n                1, //uint256 _editionType,\n                nftProposal.tokenUri //string calldata _tokenUri\n            );\n        }\n    }\n}",
  "sourcePath": "/Users/andygray/workspace/known-origin-kod/smart-contracts/contracts/MolochV1KOD.sol",
  "compiler": {
    "name": "solc",
    "version": "0.5.10+commit.5a6ea5b1.Emscripten.clang"
  },
  "schemaVersion": "3.0.22",
  "updatedAt": "2020-02-13T17:06:04.358Z",
  "networkType": "ethereum",
  "devdoc": {
    "methods": {}
  },
  "userdoc": {
    "methods": {
      "constructor": "****** FUNCTIONS*******",
      "submitProposal(address,uint256,uint256,string)": {
        "notice": "*************** PROPOSAL FUNCTIONS****************"
      }
    }
  }
}